Component: ARM Compiler 5.06 update 7 (build 960) Tool: armlink [4d3601]

==============================================================================

Section Cross References

    log.o(i.log_get_level) refers to log.o(.data) for .data
    log.o(i.log_puts) refers to printfa.o(i.__0fprintf) for __2fprintf
    log.o(i.log_puts) refers to usart.o(i.fputc) for fputc
    log.o(i.log_puts) refers to stdout.o(.data) for __stdout
    log.o(i.log_puts) refers to log.o(.data) for .data
    log.o(i.log_set_level) refers to log.o(.data) for .data
    log.o(.data) refers to log.o(.conststring) for .conststring
    main.o(i.SystemClock_Config) refers to memseta.o(.text) for __aeabi_memclr4
    main.o(i.SystemClock_Config) refers to stm32f4xx_hal_rcc.o(i.HAL_RCC_OscConfig) for HAL_RCC_OscConfig
    main.o(i.SystemClock_Config) refers to stm32f4xx_hal_rcc.o(i.HAL_RCC_ClockConfig) for HAL_RCC_ClockConfig
    main.o(i.bsp_delay_us) refers to main.o(.data) for .data
    main.o(i.bsp_delay_us) refers to system_stm32f4xx.o(.data) for SystemCoreClock
    main.o(i.main) refers to stm32f4xx_hal.o(i.HAL_Init) for HAL_Init
    main.o(i.main) refers to main.o(i.SystemClock_Config) for SystemClock_Config
    main.o(i.main) refers to gpio.o(i.MX_GPIO_Init) for MX_GPIO_Init
    main.o(i.main) refers to usart.o(i.MX_USART1_UART_Init) for MX_USART1_UART_Init
    main.o(i.main) refers to adc.o(i.MX_ADC1_Init) for MX_ADC1_Init
    main.o(i.main) refers to spi.o(i.MX_SPI1_Init) for MX_SPI1_Init
==============================================================================

Removing Unused input sections from the image.

    Removing log.o(.rev16_text), (4 bytes).
    Removing log.o(.revsh_text), (4 bytes).
    Removing log.o(.rrx_text), (6 bytes).
    Removing log.o(i.log_get_level), (12 bytes).
    Removing log.o(i.log_puts), (512 bytes).
    Removing log.o(i.log_set_level), (12 bytes).
    Removing log.o(.conststring), (38 bytes).
    Removing log.o(.data), (24 bytes).
    Removing main.o(.rev16_text), (4 bytes).
    Removing main.o(.revsh_text), (4 bytes).
    Removing main.o(.rrx_text), (6 bytes).
    Removing gpio.o(.rev16_text), (4 bytes).
    Removing gpio.o(.revsh_text), (4 bytes).
    Removing gpio.o(.rrx_text), (6 bytes).
    Removing gpio.o(i.IIC_GPIO_Init), (88 bytes).
    Removing freertos.o(.rev16_text), (4 bytes).
    Removing freertos.o(.revsh_text), (4 bytes).
    Removing freertos.o(.rrx_text), (6 bytes).
==============================================================================

Image Symbol Table

    Local Symbols

    Symbol Name                              Value     Ov Type        Size  Object(Section)

    ../Drivers/STM32F4xx_HAL_Driver/Src/stm32f4xx_hal.c 0x00000000   Number         0  stm32f4xx_hal.o ABSOLUTE
    ../Drivers/STM32F4xx_HAL_Driver/Src/stm32f4xx_hal_adc.c 0x00000000   Number         0  stm32f4xx_hal_adc.o ABSOLUTE
    ../Drivers/STM32F4xx_HAL_Driver/Src/stm32f4xx_hal_adc_ex.c 0x00000000   Number         0  stm32f4xx_hal_adc_ex.o ABSOLUTE
    ../Drivers/STM32F4xx_HAL_Driver/Src/stm32f4xx_hal_cortex.c 0x00000000   Number         0  stm32f4xx_hal_cortex.o ABSOLUTE
    ../Drivers/STM32F4xx_HAL_Driver/Src/stm32f4xx_hal_dma.c 0x00000000   Number         0  stm32f4xx_hal_dma.o ABSOLUTE
    ../Drivers/STM32F4xx_HAL_Driver/Src/stm32f4xx_hal_dma_ex.c 0x00000000   Number         0  stm32f4xx_hal_dma_ex.o ABSOLUTE
    ../Drivers/STM32F4xx_HAL_Driver/Src/stm32f4xx_hal_exti.c 0x00000000   Number         0  stm32f4xx_hal_exti.o ABSOLUTE
    ../Drivers/STM32F4xx_HAL_Driver/Src/stm32f4xx_hal_flash.c 0x00000000   Number         0  stm32f4xx_hal_flash.o ABSOLUTE
    ../Drivers/STM32F4xx_HAL_Driver/Src/stm32f4xx_hal_flash_ex.c 0x00000000   Number         0  stm32f4xx_hal_flash_ex.o ABSOLUTE
    ../Drivers/STM32F4xx_HAL_Driver/Src/stm32f4xx_hal_flash_ramfunc.c 0x00000000   Number         0  stm32f4xx_hal_flash_ramfunc.o ABSOLUTE
    ../Drivers/STM32F4xx_HAL_Driver/Src/stm32f4xx_hal_gpio.c 0x00000000   Number         0  stm32f4xx_hal_gpio.o ABSOLUTE
    ../Drivers/STM32F4xx_HAL_Driver/Src/stm32f4xx_hal_pwr.c 0x00000000   Number         0  stm32f4xx_hal_pwr.o ABSOLUTE
    ../Drivers/STM32F4xx_HAL_Driver/Src/stm32f4xx_hal_pwr_ex.c 0x00000000   Number         0  stm32f4xx_hal_pwr_ex.o ABSOLUTE
    ../Drivers/STM32F4xx_HAL_Driver/Src/stm32f4xx_hal_rcc.c 0x00000000   Number         0  stm32f4xx_hal_rcc.o ABSOLUTE
    ../Drivers/STM32F4xx_HAL_Driver/Src/stm32f4xx_hal_rcc_ex.c 0x00000000   Number         0  stm32f4xx_hal_rcc_ex.o ABSOLUTE
    ../Drivers/STM32F4xx_HAL_Driver/Src/stm32f4xx_hal_spi.c 0x00000000   Number         0  stm32f4xx_hal_spi.o ABSOLUTE
    ../Drivers/STM32F4xx_HAL_Driver/Src/stm32f4xx_hal_tim.c 0x00000000   Number         0  stm32f4xx_hal_tim.o ABSOLUTE
    ../Drivers/STM32F4xx_HAL_Driver/Src/stm32f4xx_hal_tim_ex.c 0x00000000   Number         0  stm32f4xx_hal_tim_ex.o ABSOLUTE
    ../Drivers/STM32F4xx_HAL_Driver/Src/stm32f4xx_hal_uart.c 0x00000000   Number         0  stm32f4xx_hal_uart.o ABSOLUTE
    ../Middlewares/Third_Party/FreeRTOS/Source/CMSIS_RTOS_V2/cmsis_os2.c 0x00000000   Number         0  cmsis_os2.o ABSOLUTE
    ../Middlewares/Third_Party/FreeRTOS/Source/croutine.c 0x00000000   Number         0  croutine.o ABSOLUTE
    ../Middlewares/Third_Party/FreeRTOS/Source/event_groups.c 0x00000000   Number         0  event_groups.o ABSOLUTE
    ../Middlewares/Third_Party/FreeRTOS/Source/list.c 0x00000000   Number         0  list.o ABSOLUTE
    ../Middlewares/Third_Party/FreeRTOS/Source/portable/MemMang/heap_4.c 0x00000000   Number         0  heap_4.o ABSOLUTE
    ../Middlewares/Third_Party/FreeRTOS/Source/portable/RVDS/ARM_CM4F/port.c 0x00000000   Number         0  port.o ABSOLUTE
    ../Middlewares/Third_Party/FreeRTOS/Source/queue.c 0x00000000   Number         0  queue.o ABSOLUTE
    ../Middlewares/Third_Party/FreeRTOS/Source/stream_buffer.c 0x00000000   Number         0  stream_buffer.o ABSOLUTE
    ../Middlewares/Third_Party/FreeRTOS/Source/tasks.c 0x00000000   Number         0  tasks.o ABSOLUTE
    ../Middlewares/Third_Party/FreeRTOS/Source/timers.c 0x00000000   Number         0  timers.o ABSOLUTE
    ../Src/adc.c                             0x00000000   Number         0  adc.o ABSOLUTE
    ../Src/spi.c                             0x00000000   Number         0  spi.o ABSOLUTE
    ../Src/tim.c                             0x00000000   Number         0  tim.o ABSOLUTE
    ../clib/microlib/division.c              0x00000000   Number         0  uldiv.o ABSOLUTE
    ../clib/microlib/division.c              0x00000000   Number         0  uidiv.o ABSOLUTE
    ../clib/microlib/init/entry.s            0x00000000   Number         0  entry2.o ABSOLUTE
    ../clib/microlib/init/entry.s            0x00000000   Number         0  entry12b.o ABSOLUTE
    ../clib/microlib/init/entry.s            0x00000000   Number         0  entry7a.o ABSOLUTE
    ../clib/microlib/init/entry.s            0x00000000   Number         0  entry9b.o ABSOLUTE
    ../clib/microlib/init/entry.s            0x00000000   Number         0  entry7b.o ABSOLUTE
    ../clib/microlib/init/entry.s            0x00000000   Number         0  entry9a.o ABSOLUTE
    ../clib/microlib/init/entry.s            0x00000000   Number         0  entry8b.o ABSOLUTE
    ../clib/microlib/init/entry.s            0x00000000   Number         0  entry8a.o ABSOLUTE
    ../clib/microlib/init/entry.s            0x00000000   Number         0  entry.o ABSOLUTE
    ../clib/microlib/init/entry.s            0x00000000   Number         0  entry11b.o ABSOLUTE
    ../clib/microlib/init/entry.s            0x00000000   Number         0  entry10a.o ABSOLUTE
    ../clib/microlib/init/entry.s            0x00000000   Number         0  entry11a.o ABSOLUTE
    ../clib/microlib/init/entry.s            0x00000000   Number         0  entry5.o ABSOLUTE
    ../clib/microlib/init/entry.s            0x00000000   Number         0  entry10b.o ABSOLUTE
    ../clib/microlib/init/entry.s            0x00000000   Number         0  entry12a.o ABSOLUTE
    ../clib/microlib/longlong.c              0x00000000   Number         0  llushr.o ABSOLUTE
    ../clib/microlib/longlong.c              0x00000000   Number         0  llshl.o ABSOLUTE
    ../clib/microlib/longlong.c              0x00000000   Number         0  llsshr.o ABSOLUTE
    ../clib/microlib/printf/printf.c         0x00000000   Number         0  printfa.o ABSOLUTE
    ../clib/microlib/printf/printf.c         0x00000000   Number         0  printf8.o ABSOLUTE
    ../clib/microlib/printf/printf.c         0x00000000   Number         0  printf7.o ABSOLUTE
    ../clib/microlib/printf/printf.c         0x00000000   Number         0  printfb.o ABSOLUTE
    ../clib/microlib/printf/printf.c         0x00000000   Number         0  printf0.o ABSOLUTE
    ../clib/microlib/printf/printf.c         0x00000000   Number         0  printf5.o ABSOLUTE
    ../clib/microlib/printf/printf.c         0x00000000   Number         0  printf4.o ABSOLUTE
    ../clib/microlib/printf/printf.c         0x00000000   Number         0  printf1.o ABSOLUTE
    ../clib/microlib/printf/printf.c         0x00000000   Number         0  printf2.o ABSOLUTE
    ../clib/microlib/printf/printf.c         0x00000000   Number         0  printf6.o ABSOLUTE
    ../clib/microlib/printf/printf.c         0x00000000   Number         0  printf3.o ABSOLUTE
    ../clib/microlib/printf/stubs.s          0x00000000   Number         0  stubs.o ABSOLUTE
    ../clib/microlib/stdio/streams.c         0x00000000   Number         0  stdout.o ABSOLUTE
    ../clib/microlib/string/memcpy.c         0x00000000   Number         0  memcpyb.o ABSOLUTE
    ../clib/microlib/string/memcpy.c         0x00000000   Number         0  memcpya.o ABSOLUTE
    ../clib/microlib/string/memset.c         0x00000000   Number         0  memset.o ABSOLUTE
    ../clib/microlib/string/memset.c         0x00000000   Number         0  memseta.o ABSOLUTE
    ../clib/microlib/string/strlen.c         0x00000000   Number         0  strlen.o ABSOLUTE
    ../clib/microlib/stubs.s                 0x00000000   Number         0  iusefp.o ABSOLUTE
    ../fplib/microlib/fpadd.c                0x00000000   Number         0  dadd.o ABSOLUTE
    ../fplib/microlib/fpdiv.c                0x00000000   Number         0  ddiv.o ABSOLUTE
    ../fplib/microlib/fpepilogue.c           0x00000000   Number         0  depilogue.o ABSOLUTE
    ../fplib/microlib/fpfix.c                0x00000000   Number         0  dfixul.o ABSOLUTE
    ../fplib/microlib/fpmul.c                0x00000000   Number         0  dmul.o ABSOLUTE
    ..\Drivers\STM32F4xx_HAL_Driver\Src\stm32f4xx_hal.c 0x00000000   Number         0  stm32f4xx_hal.o ABSOLUTE
    ..\Drivers\STM32F4xx_HAL_Driver\Src\stm32f4xx_hal_adc.c 0x00000000   Number         0  stm32f4xx_hal_adc.o ABSOLUTE
    ..\Drivers\STM32F4xx_HAL_Driver\Src\stm32f4xx_hal_adc_ex.c 0x00000000   Number         0  stm32f4xx_hal_adc_ex.o ABSOLUTE
    ..\Drivers\STM32F4xx_HAL_Driver\Src\stm32f4xx_hal_cortex.c 0x00000000   Number         0  stm32f4xx_hal_cortex.o ABSOLUTE
    ..\Drivers\STM32F4xx_HAL_Driver\Src\stm32f4xx_hal_dma.c 0x00000000   Number         0  stm32f4xx_hal_dma.o ABSOLUTE
    ..\Drivers\STM32F4xx_HAL_Driver\Src\stm32f4xx_hal_dma_ex.c 0x00000000   Number         0  stm32f4xx_hal_dma_ex.o ABSOLUTE
    ..\Drivers\STM32F4xx_HAL_Driver\Src\stm32f4xx_hal_exti.c 0x00000000   Number         0  stm32f4xx_hal_exti.o ABSOLUTE
    ..\Drivers\STM32F4xx_HAL_Driver\Src\stm32f4xx_hal_flash.c 0x00000000   Number         0  stm32f4xx_hal_flash.o ABSOLUTE
    ..\Drivers\STM32F4xx_HAL_Driver\Src\stm32f4xx_hal_flash_ex.c 0x00000000   Number         0  stm32f4xx_hal_flash_ex.o ABSOLUTE
    ..\Drivers\STM32F4xx_HAL_Driver\Src\stm32f4xx_hal_flash_ramfunc.c 0x00000000   Number         0  stm32f4xx_hal_flash_ramfunc.o ABSOLUTE
    ..\Drivers\STM32F4xx_HAL_Driver\Src\stm32f4xx_hal_gpio.c 0x00000000   Number         0  stm32f4xx_hal_gpio.o ABSOLUTE
    ..\Drivers\STM32F4xx_HAL_Driver\Src\stm32f4xx_hal_pwr.c 0x00000000   Number         0  stm32f4xx_hal_pwr.o ABSOLUTE
    ..\Drivers\STM32F4xx_HAL_Driver\Src\stm32f4xx_hal_pwr_ex.c 0x00000000   Number         0  stm32f4xx_hal_pwr_ex.o ABSOLUTE
    ..\Drivers\STM32F4xx_HAL_Driver\Src\stm32f4xx_hal_rcc.c 0x00000000   Number         0  stm32f4xx_hal_rcc.o ABSOLUTE
    ..\Drivers\STM32F4xx_HAL_Driver\Src\stm32f4xx_hal_rcc_ex.c 0x00000000   Number         0  stm32f4xx_hal_rcc_ex.o ABSOLUTE
    ..\Drivers\STM32F4xx_HAL_Driver\Src\stm32f4xx_hal_spi.c 0x00000000   Number         0  stm32f4xx_hal_spi.o ABSOLUTE
    ..\Drivers\STM32F4xx_HAL_Driver\Src\stm32f4xx_hal_tim.c 0x00000000   Number         0  stm32f4xx_hal_tim.o ABSOLUTE
    ..\Drivers\STM32F4xx_HAL_Driver\Src\stm32f4xx_hal_tim_ex.c 0x00000000   Number         0  stm32f4xx_hal_tim_ex.o ABSOLUTE
    ..\Drivers\STM32F4xx_HAL_Driver\Src\stm32f4xx_hal_uart.c 0x00000000   Number         0  stm32f4xx_hal_uart.o ABSOLUTE
    ..\Middlewares\Third_Party\FreeRTOS\Source\CMSIS_RTOS_V2\cmsis_os2.c 0x00000000   Number         0  cmsis_os2.o ABSOLUTE
    ..\Middlewares\Third_Party\FreeRTOS\Source\portable\RVDS\ARM_CM4F\port.c 0x00000000   Number         0  port.o ABSOLUTE
    ..\Src\24cxx.c                           0x00000000   Number         0  24cxx.o ABSOLUTE
    ..\Src\W25QXX.c                          0x00000000   Number         0  w25qxx.o ABSOLUTE
    ..\Src\adc.c                             0x00000000   Number         0  adc.o ABSOLUTE
    ..\Src\common.c                          0x00000000   Number         0  common.o ABSOLUTE
    ..\Src\freertos.c                        0x00000000   Number         0  freertos.o ABSOLUTE
    ..\Src\gpio.c                            0x00000000   Number         0  gpio.o ABSOLUTE
    ..\Src\log.c                             0x00000000   Number         0  log.o ABSOLUTE
    ..\Src\main.c                            0x00000000   Number         0  main.o ABSOLUTE
    ..\Src\myiic.c                           0x00000000   Number         0  myiic.o ABSOLUTE
    ..\Src\spi.c                             0x00000000   Number         0  spi.o ABSOLUTE
    ..\Src\stm32f4xx_hal_msp.c               0x00000000   Number         0  stm32f4xx_hal_msp.o ABSOLUTE
    ..\Src\stm32f4xx_it.c                    0x00000000   Number         0  stm32f4xx_it.o ABSOLUTE
    ..\Src\system_stm32f4xx.c                0x00000000   Number         0  system_stm32f4xx.o ABSOLUTE
    ..\Src\tim.c                             0x00000000   Number         0  tim.o ABSOLUTE
    ..\Src\usart.c                           0x00000000   Number         0  usart.o ABSOLUTE
    ..\\Src\\24cxx.c                         0x00000000   Number         0  24cxx.o ABSOLUTE
    ..\\Src\\W25QXX.c                        0x00000000   Number         0  w25qxx.o ABSOLUTE
    ..\\Src\\common.c                        0x00000000   Number         0  common.o ABSOLUTE
    ..\\Src\\freertos.c                      0x00000000   Number         0  freertos.o ABSOLUTE
    ..\\Src\\gpio.c                          0x00000000   Number         0  gpio.o ABSOLUTE
    ..\\Src\\log.c                           0x00000000   Number         0  log.o ABSOLUTE
    ..\\Src\\main.c                          0x00000000   Number         0  main.o ABSOLUTE
    ..\\Src\\myiic.c                         0x00000000   Number         0  myiic.o ABSOLUTE
    ..\\Src\\stm32f4xx_hal_msp.c             0x00000000   Number         0  stm32f4xx_hal_msp.o ABSOLUTE
    ..\\Src\\stm32f4xx_it.c                  0x00000000   Number         0  stm32f4xx_it.o ABSOLUTE
    ..\\Src\\system_stm32f4xx.c              0x00000000   Number         0  system_stm32f4xx.o ABSOLUTE
    ..\\Src\\usart.c                         0x00000000   Number         0  usart.o ABSOLUTE
    cdrcmple.s                               0x00000000   Number         0  cdrcmple.o ABSOLUTE
    dc.s                                     0x00000000   Number         0  dc.o ABSOLUTE
    handlers.s                               0x00000000   Number         0  handlers.o ABSOLUTE
    init.s                                   0x00000000   Number         0  init.o ABSOLUTE
    startup_stm32f407xx.s                    0x00000000   Number         0  startup_stm32f407xx.o ABSOLUTE
    RESET                                    0x08000000   Section      392  startup_stm32f407xx.o(RESET)
    .ARM.Collect$$$$00000000                 0x08000188   Section        0  entry.o(.ARM.Collect$$$$00000000)
    .ARM.Collect$$$$00000001                 0x08000188   Section        4  entry2.o(.ARM.Collect$$$$00000001)
    .ARM.Collect$$$$00000004                 0x0800018c   Section        4  entry5.o(.ARM.Collect$$$$00000004)
    .ARM.Collect$$$$00000008                 0x08000190   Section        0  entry7b.o(.ARM.Collect$$$$00000008)
    .ARM.Collect$$$$0000000A                 0x08000190   Section        0  entry8b.o(.ARM.Collect$$$$0000000A)
    .ARM.Collect$$$$0000000B                 0x08000190   Section        8  entry9a.o(.ARM.Collect$$$$0000000B)
    .ARM.Collect$$$$0000000E                 0x08000198   Section        4  entry12b.o(.ARM.Collect$$$$0000000E)
    .ARM.Collect$$$$0000000F                 0x0800019c   Section        0  entry10a.o(.ARM.Collect$$$$0000000F)
    .ARM.Collect$$$$00000011                 0x0800019c   Section        0  entry11a.o(.ARM.Collect$$$$00000011)
    .ARM.Collect$$$$00002712                 0x0800019c   Section        4  entry2.o(.ARM.Collect$$$$00002712)
    __lit__00000000                          0x0800019c   Data           4  entry2.o(.ARM.Collect$$$$00002712)
    .emb_text                                0x080001a0   Section      190  port.o(.emb_text)
    $v0                                      0x080001a0   Number         0  port.o(.emb_text)
    .text                                    0x08000260   Section       36  startup_stm32f407xx.o(.text)
    $v0                                      0x08000260   Number         0  startup_stm32f407xx.o(.text)
    .text                                    0x08000284   Section        0  uldiv.o(.text)
    .text                                    0x080002e6   Section        0  memcpya.o(.text)
    .text                                    0x0800030a   Section        0  memseta.o(.text)
    .text                                    0x0800032e   Section        0  strlen.o(.text)
    .text                                    0x0800033c   Section        0  uidiv.o(.text)
    .text                                    0x08000368   Section        0  llshl.o(.text)
    .text                                    0x08000386   Section        0  llushr.o(.text)
    .text                                    0x080003a6   Section        0  dadd.o(.text)
    .text                                    0x080003a6   Section        0  iusefp.o(.text)
    .text                                    0x080004f4   Section        0  dmul.o(.text)
    .text                                    0x080005d8   Section        0  ddiv.o(.text)
    .text                                    0x080006b6   Section        0  dfixul.o(.text)
    .text                                    0x080006e8   Section       48  cdrcmple.o(.text)
    .text                                    0x08000718   Section       36  init.o(.text)
    .text                                    0x0800073c   Section        0  llsshr.o(.text)
    .text                                    0x08000760   Section        0  depilogue.o(.text)
    i.ADC_Init                               0x0800081c   Section        0  stm32f4xx_hal_adc.o(i.ADC_Init)
    ADC_Init                                 0x0800081d   Thumb Code   284  stm32f4xx_hal_adc.o(i.ADC_Init)
    i.AT24CXX_Init                           0x08000944   Section        0  24cxx.o(i.AT24CXX_Init)
    i.AT24CXX_Read                           0x08000948   Section        0  24cxx.o(i.AT24CXX_Read)
    i.AT24CXX_ReadOneByte                    0x0800096a   Section        0  24cxx.o(i.AT24CXX_ReadOneByte)
    i.AT24CXX_Write                          0x080009ac   Section        0  24cxx.o(i.AT24CXX_Write)
    i.AT24CXX_WriteOneByte                   0x080009cc   Section        0  24cxx.o(i.AT24CXX_WriteOneByte)
    i.BSP_W25Qx_Erase_Block                  0x08000a0c   Section        0  w25qxx.o(i.BSP_W25Qx_Erase_Block)
    i.BSP_W25Qx_GetStatus                    0x08000a80   Section        0  w25qxx.o(i.BSP_W25Qx_GetStatus)
    BSP_W25Qx_GetStatus                      0x08000a81   Thumb Code    74  w25qxx.o(i.BSP_W25Qx_GetStatus)
    i.BSP_W25Qx_Init                         0x08000ad8   Section        0  w25qxx.o(i.BSP_W25Qx_Init)
    i.BSP_W25Qx_Read                         0x08000b80   Section        0  w25qxx.o(i.BSP_W25Qx_Read)
    i.BSP_W25Qx_Read_ID                      0x08000bec   Section        0  w25qxx.o(i.BSP_W25Qx_Read_ID)
    i.BSP_W25Qx_Write                        0x08000c3c   Section        0  w25qxx.o(i.BSP_W25Qx_Write)
    i.BSP_W25Qx_WriteEnable                  0x08000d08   Section        0  w25qxx.o(i.BSP_W25Qx_WriteEnable)
    i.BusFault_Handler                       0x08000d68   Section        0  stm32f4xx_it.o(i.BusFault_Handler)
    i.DebugMon_Handler                       0x08000d6a   Section        0  stm32f4xx_it.o(i.DebugMon_Handler)
    i.EXTI4_IRQHandler                       0x08000d6c   Section        0  stm32f4xx_it.o(i.EXTI4_IRQHandler)
    i.Error_Handler                          0x08000d72   Section        0  main.o(i.Error_Handler)
    i.HAL_ADCEx_InjectedConfigChannel        0x08000d78   Section        0  stm32f4xx_hal_adc_ex.o(i.HAL_ADCEx_InjectedConfigChannel)
    i.HAL_ADC_ConfigChannel                  0x08000f34   Section        0  stm32f4xx_hal_adc.o(i.HAL_ADC_ConfigChannel)
    i.HAL_ADC_Init                           0x08001080   Section        0  stm32f4xx_hal_adc.o(i.HAL_ADC_Init)
    i.HAL_ADC_MspInit                        0x080010d4   Section        0  adc.o(i.HAL_ADC_MspInit)
    i.HAL_DMA_Abort_IT                       0x08001134   Section        0  stm32f4xx_hal_dma.o(i.HAL_DMA_Abort_IT)
    i.HAL_GPIO_EXTI_Callback                 0x08001158   Section        0  stm32f4xx_hal_gpio.o(i.HAL_GPIO_EXTI_Callback)
    i.HAL_GPIO_EXTI_IRQHandler               0x0800115c   Section        0  stm32f4xx_hal_gpio.o(i.HAL_GPIO_EXTI_IRQHandler)
    i.HAL_GPIO_Init                          0x08001174   Section        0  stm32f4xx_hal_gpio.o(i.HAL_GPIO_Init)
    i.HAL_GPIO_ReadPin                       0x0800132c   Section        0  stm32f4xx_hal_gpio.o(i.HAL_GPIO_ReadPin)
    i.HAL_GPIO_WritePin                      0x08001336   Section        0  stm32f4xx_hal_gpio.o(i.HAL_GPIO_WritePin)
    i.HAL_GetTick                            0x08001340   Section        0  stm32f4xx_hal.o(i.HAL_GetTick)
    i.HAL_IncTick                            0x0800134c   Section        0  stm32f4xx_hal.o(i.HAL_IncTick)
    i.HAL_Init                               0x0800135c   Section        0  stm32f4xx_hal.o(i.HAL_Init)
    i.HAL_InitTick                           0x08001390   Section        0  stm32f4xx_hal.o(i.HAL_InitTick)
    i.HAL_MspInit                            0x080013d0   Section        0  stm32f4xx_hal_msp.o(i.HAL_MspInit)
    i.HAL_NVIC_EnableIRQ                     0x08001408   Section        0  stm32f4xx_hal_cortex.o(i.HAL_NVIC_EnableIRQ)
    i.HAL_NVIC_SetPriority                   0x08001424   Section        0  stm32f4xx_hal_cortex.o(i.HAL_NVIC_SetPriority)
    i.HAL_NVIC_SetPriorityGrouping           0x08001464   Section        0  stm32f4xx_hal_cortex.o(i.HAL_NVIC_SetPriorityGrouping)
    i.HAL_RCC_ClockConfig                    0x08001488   Section        0  stm32f4xx_hal_rcc.o(i.HAL_RCC_ClockConfig)
    i.HAL_RCC_GetPCLK1Freq                   0x080015bc   Section        0  stm32f4xx_hal_rcc.o(i.HAL_RCC_GetPCLK1Freq)
    i.HAL_RCC_GetPCLK2Freq                   0x080015dc   Section        0  stm32f4xx_hal_rcc.o(i.HAL_RCC_GetPCLK2Freq)
    i.HAL_RCC_GetSysClockFreq                0x080015fc   Section        0  stm32f4xx_hal_rcc.o(i.HAL_RCC_GetSysClockFreq)
    i.HAL_RCC_OscConfig                      0x0800165c   Section        0  stm32f4xx_hal_rcc.o(i.HAL_RCC_OscConfig)
    i.HAL_SPI_Init                           0x080019b8   Section        0  stm32f4xx_hal_spi.o(i.HAL_SPI_Init)
    i.HAL_SPI_MspInit                        0x08001a38   Section        0  spi.o(i.HAL_SPI_MspInit)
    i.HAL_SPI_Receive                        0x08001aa0   Section        0  stm32f4xx_hal_spi.o(i.HAL_SPI_Receive)
    i.HAL_SPI_Transmit                       0x08001bf0   Section        0  stm32f4xx_hal_spi.o(i.HAL_SPI_Transmit)
    i.HAL_SPI_TransmitReceive                0x08001d4c   Section        0  stm32f4xx_hal_spi.o(i.HAL_SPI_TransmitReceive)
    i.HAL_SYSTICK_Config                     0x08001f2e   Section        0  stm32f4xx_hal_cortex.o(i.HAL_SYSTICK_Config)
    i.HAL_TIMEx_BreakCallback                0x08001f56   Section        0  stm32f4xx_hal_tim_ex.o(i.HAL_TIMEx_BreakCallback)
    i.HAL_TIMEx_CommutCallback               0x08001f58   Section        0  stm32f4xx_hal_tim_ex.o(i.HAL_TIMEx_CommutCallback)
    i.HAL_TIMEx_MasterConfigSynchronization  0x08001f5c   Section        0  stm32f4xx_hal_tim_ex.o(i.HAL_TIMEx_MasterConfigSynchronization)
    i.HAL_TIM_Base_Init                      0x08001fec   Section        0  stm32f4xx_hal_tim.o(i.HAL_TIM_Base_Init)
    i.HAL_TIM_Base_MspInit                   0x08002024   Section        0  tim.o(i.HAL_TIM_Base_MspInit)
    i.HAL_TIM_ConfigClockSource              0x08002088   Section        0  stm32f4xx_hal_tim.o(i.HAL_TIM_ConfigClockSource)
    i.HAL_TIM_IC_CaptureCallback             0x0800215e   Section        0  stm32f4xx_hal_tim.o(i.HAL_TIM_IC_CaptureCallback)
    i.HAL_TIM_IRQHandler                     0x08002160   Section        0  stm32f4xx_hal_tim.o(i.HAL_TIM_IRQHandler)
    i.HAL_TIM_MspPostInit                    0x080022c8   Section        0  tim.o(i.HAL_TIM_MspPostInit)
    i.HAL_TIM_OC_DelayElapsedCallback        0x0800231c   Section        0  stm32f4xx_hal_tim.o(i.HAL_TIM_OC_DelayElapsedCallback)
    i.HAL_TIM_PWM_ConfigChannel              0x0800231e   Section        0  stm32f4xx_hal_tim.o(i.HAL_TIM_PWM_ConfigChannel)
    i.HAL_TIM_PWM_Init                       0x080023ee   Section        0  stm32f4xx_hal_tim.o(i.HAL_TIM_PWM_Init)
    i.HAL_TIM_PWM_MspInit                    0x08002424   Section        0  stm32f4xx_hal_tim.o(i.HAL_TIM_PWM_MspInit)
    i.HAL_TIM_PWM_PulseFinishedCallback      0x08002426   Section        0  stm32f4xx_hal_tim.o(i.HAL_TIM_PWM_PulseFinishedCallback)
    i.HAL_TIM_PeriodElapsedCallback          0x08002428   Section        0  stm32f4xx_hal_tim.o(i.HAL_TIM_PeriodElapsedCallback)
    i.HAL_TIM_TriggerCallback                0x0800242a   Section        0  stm32f4xx_hal_tim.o(i.HAL_TIM_TriggerCallback)
    i.HAL_UART_ErrorCallback                 0x0800242c   Section        0  stm32f4xx_hal_uart.o(i.HAL_UART_ErrorCallback)
    i.HAL_UART_IRQHandler                    0x08002430   Section        0  stm32f4xx_hal_uart.o(i.HAL_UART_IRQHandler)
    i.HAL_UART_Init                          0x08002544   Section        0  stm32f4xx_hal_uart.o(i.HAL_UART_Init)
    i.HAL_UART_MspInit                       0x080025a8   Section        0  usart.o(i.HAL_UART_MspInit)
    i.HAL_UART_Receive_IT                    0x08002670   Section        0  stm32f4xx_hal_uart.o(i.HAL_UART_Receive_IT)
    i.HAL_UART_RxCpltCallback                0x080026c4   Section        0  usart.o(i.HAL_UART_RxCpltCallback)
    i.HAL_UART_Transmit                      0x080027b4   Section        0  stm32f4xx_hal_uart.o(i.HAL_UART_Transmit)
    i.HAL_UART_TxCpltCallback                0x0800286e   Section        0  stm32f4xx_hal_uart.o(i.HAL_UART_TxCpltCallback)
    i.HardFault_Handler                      0x08002870   Section        0  stm32f4xx_it.o(i.HardFault_Handler)
    i.IIC_Ack                                0x08002874   Section        0  myiic.o(i.IIC_Ack)
    i.IIC_Init                               0x080028b8   Section        0  myiic.o(i.IIC_Init)
    i.IIC_NAck                               0x08002924   Section        0  myiic.o(i.IIC_NAck)
    i.IIC_Read_Byte                          0x08002968   Section        0  myiic.o(i.IIC_Read_Byte)
    i.IIC_Send_Byte                          0x080029d0   Section        0  myiic.o(i.IIC_Send_Byte)
    i.IIC_Start                              0x08002a38   Section        0  myiic.o(i.IIC_Start)
    i.IIC_Stop                               0x08002a7c   Section        0  myiic.o(i.IIC_Stop)
    i.IIC_Wait_Ack                           0x08002ac4   Section        0  myiic.o(i.IIC_Wait_Ack)
    i.MX_ADC1_Init                           0x08002b24   Section        0  adc.o(i.MX_ADC1_Init)
    i.MX_FREERTOS_Init                       0x08002bc0   Section        0  freertos.o(i.MX_FREERTOS_Init)
    i.MX_GPIO_Init                           0x08002c3c   Section        0  gpio.o(i.MX_GPIO_Init)
    i.MX_SPI1_Init                           0x08002d30   Section        0  spi.o(i.MX_SPI1_Init)
    i.MX_TIM14_Init                          0x08002d78   Section        0  tim.o(i.MX_TIM14_Init)
    i.MX_TIM3_Init                           0x08002de0   Section        0  tim.o(i.MX_TIM3_Init)
    i.MX_USART1_UART_Init                    0x08002e4c   Section        0  usart.o(i.MX_USART1_UART_Init)
    i.MX_USART2_UART_Init                    0x08002e90   Section        0  usart.o(i.MX_USART2_UART_Init)
    i.MemManage_Handler                      0x08002ed4   Section        0  stm32f4xx_it.o(i.MemManage_Handler)
    i.NMI_Handler                            0x08002ed6   Section        0  stm32f4xx_it.o(i.NMI_Handler)
    i.SPI_EndRxTransaction                   0x08002ed8   Section        0  stm32f4xx_hal_spi.o(i.SPI_EndRxTransaction)
    SPI_EndRxTransaction                     0x08002ed9   Thumb Code    92  stm32f4xx_hal_spi.o(i.SPI_EndRxTransaction)
    i.SPI_EndRxTxTransaction                 0x08002f34   Section        0  stm32f4xx_hal_spi.o(i.SPI_EndRxTxTransaction)
    SPI_EndRxTxTransaction                   0x08002f35   Thumb Code    80  stm32f4xx_hal_spi.o(i.SPI_EndRxTxTransaction)
    i.SPI_WaitFlagStateUntilTimeout          0x08002f8c   Section        0  stm32f4xx_hal_spi.o(i.SPI_WaitFlagStateUntilTimeout)
    SPI_WaitFlagStateUntilTimeout            0x08002f8d   Thumb Code   148  stm32f4xx_hal_spi.o(i.SPI_WaitFlagStateUntilTimeout)
    i.StartDefaultTask                       0x08003020   Section        0  freertos.o(i.StartDefaultTask)
    i.StartTask02                            0x08003028   Section        0  freertos.o(i.StartTask02)
    i.StartTask04                            0x080030d8   Section        0  freertos.o(i.StartTask04)
    i.SysTick_Handler                        0x08003138   Section        0  stm32f4xx_it.o(i.SysTick_Handler)
    i.SystemClock_Config                     0x08003150   Section        0  main.o(i.SystemClock_Config)
    i.SystemInit                             0x080031e8   Section        0  system_stm32f4xx.o(i.SystemInit)
    i.TIM3_IRQHandler                        0x08003204   Section        0  stm32f4xx_it.o(i.TIM3_IRQHandler)
    i.TIM8_TRG_COM_TIM14_IRQHandler          0x08003210   Section        0  stm32f4xx_it.o(i.TIM8_TRG_COM_TIM14_IRQHandler)
    i.TIM_Base_SetConfig                     0x0800321c   Section        0  stm32f4xx_hal_tim.o(i.TIM_Base_SetConfig)
    i.TIM_ETR_SetConfig                      0x080032e4   Section        0  stm32f4xx_hal_tim.o(i.TIM_ETR_SetConfig)
    i.TIM_ITRx_SetConfig                     0x080032f8   Section        0  stm32f4xx_hal_tim.o(i.TIM_ITRx_SetConfig)
    TIM_ITRx_SetConfig                       0x080032f9   Thumb Code    16  stm32f4xx_hal_tim.o(i.TIM_ITRx_SetConfig)
    i.TIM_OC1_SetConfig                      0x08003308   Section        0  stm32f4xx_hal_tim.o(i.TIM_OC1_SetConfig)
    TIM_OC1_SetConfig                        0x08003309   Thumb Code    88  stm32f4xx_hal_tim.o(i.TIM_OC1_SetConfig)
    i.TIM_OC2_SetConfig                      0x08003368   Section        0  stm32f4xx_hal_tim.o(i.TIM_OC2_SetConfig)
    i.TIM_OC3_SetConfig                      0x080033d4   Section        0  stm32f4xx_hal_tim.o(i.TIM_OC3_SetConfig)
    TIM_OC3_SetConfig                        0x080033d5   Thumb Code    96  stm32f4xx_hal_tim.o(i.TIM_OC3_SetConfig)
    i.TIM_OC4_SetConfig                      0x0800343c   Section        0  stm32f4xx_hal_tim.o(i.TIM_OC4_SetConfig)
    TIM_OC4_SetConfig                        0x0800343d   Thumb Code    70  stm32f4xx_hal_tim.o(i.TIM_OC4_SetConfig)
    i.TIM_TI1_ConfigInputStage               0x0800348c   Section        0  stm32f4xx_hal_tim.o(i.TIM_TI1_ConfigInputStage)
    TIM_TI1_ConfigInputStage                 0x0800348d   Thumb Code    34  stm32f4xx_hal_tim.o(i.TIM_TI1_ConfigInputStage)
    i.TIM_TI2_ConfigInputStage               0x080034ae   Section        0  stm32f4xx_hal_tim.o(i.TIM_TI2_ConfigInputStage)
    TIM_TI2_ConfigInputStage                 0x080034af   Thumb Code    36  stm32f4xx_hal_tim.o(i.TIM_TI2_ConfigInputStage)
    i.Task3                                  0x080034d4   Section        0  freertos.o(i.Task3)
    i.UART_DMAAbortOnError                   0x0800353c   Section        0  stm32f4xx_hal_uart.o(i.UART_DMAAbortOnError)
    UART_DMAAbortOnError                     0x0800353d   Thumb Code    16  stm32f4xx_hal_uart.o(i.UART_DMAAbortOnError)
    i.UART_EndRxTransfer                     0x0800354c   Section        0  stm32f4xx_hal_uart.o(i.UART_EndRxTransfer)
    UART_EndRxTransfer                       0x0800354d   Thumb Code    28  stm32f4xx_hal_uart.o(i.UART_EndRxTransfer)
    i.UART_Receive_IT                        0x08003568   Section        0  stm32f4xx_hal_uart.o(i.UART_Receive_IT)
    UART_Receive_IT                          0x08003569   Thumb Code   150  stm32f4xx_hal_uart.o(i.UART_Receive_IT)
    i.UART_SetConfig                         0x08003600   Section        0  stm32f4xx_hal_uart.o(i.UART_SetConfig)
    UART_SetConfig                           0x08003601   Thumb Code   286  stm32f4xx_hal_uart.o(i.UART_SetConfig)
    i.UART_Transmit_IT                       0x08003728   Section        0  stm32f4xx_hal_uart.o(i.UART_Transmit_IT)
    UART_Transmit_IT                         0x08003729   Thumb Code    98  stm32f4xx_hal_uart.o(i.UART_Transmit_IT)
    i.UART_WaitOnFlagUntilTimeout            0x0800378a   Section        0  stm32f4xx_hal_uart.o(i.UART_WaitOnFlagUntilTimeout)
    UART_WaitOnFlagUntilTimeout              0x0800378b   Thumb Code   100  stm32f4xx_hal_uart.o(i.UART_WaitOnFlagUntilTimeout)
    i.USART1_IRQHandler                      0x080037f0   Section        0  stm32f4xx_it.o(i.USART1_IRQHandler)
    i.USART2_IRQHandler                      0x080037fc   Section        0  stm32f4xx_it.o(i.USART2_IRQHandler)
    i.UsageFault_Handler                     0x08003808   Section        0  stm32f4xx_it.o(i.UsageFault_Handler)
    i.__0printf                              0x0800380c   Section        0  printfa.o(i.__0printf)
    i.__NVIC_SetPriority                     0x0800382c   Section        0  stm32f4xx_hal_cortex.o(i.__NVIC_SetPriority)
    __NVIC_SetPriority                       0x0800382d   Thumb Code    32  stm32f4xx_hal_cortex.o(i.__NVIC_SetPriority)
    i.__scatterload_copy                     0x0800384c   Section       14  handlers.o(i.__scatterload_copy)
    i.__scatterload_null                     0x0800385a   Section        2  handlers.o(i.__scatterload_null)
    i.__scatterload_zeroinit                 0x0800385c   Section       14  handlers.o(i.__scatterload_zeroinit)
    i._fp_digits                             0x0800386c   Section        0  printfa.o(i._fp_digits)
    _fp_digits                               0x0800386d   Thumb Code   366  printfa.o(i._fp_digits)
    i._printf_core                           0x080039f0   Section        0  printfa.o(i._printf_core)
    _printf_core                             0x080039f1   Thumb Code  1704  printfa.o(i._printf_core)
    i._printf_post_padding                   0x080040a4   Section        0  printfa.o(i._printf_post_padding)
    _printf_post_padding                     0x080040a5   Thumb Code    36  printfa.o(i._printf_post_padding)
    i._printf_pre_padding                    0x080040c8   Section        0  printfa.o(i._printf_pre_padding)
    _printf_pre_padding                      0x080040c9   Thumb Code    46  printfa.o(i._printf_pre_padding)
    i.bsp_delay_us                           0x080040f8   Section        0  main.o(i.bsp_delay_us)
    i.fputc                                  0x08004144   Section        0  usart.o(i.fputc)
    i.main                                   0x0800415c   Section        0  main.o(i.main)
    i.osDelay                                0x08004198   Section        0  cmsis_os2.o(i.osDelay)
    i.osKernelInitialize                     0x080041cc   Section        0  cmsis_os2.o(i.osKernelInitialize)
    i.osKernelStart                          0x08004200   Section        0  cmsis_os2.o(i.osKernelStart)
    i.osMessageQueueNew                      0x0800423c   Section        0  cmsis_os2.o(i.osMessageQueueNew)
    i.osMutexNew                             0x080042b0   Section        0  cmsis_os2.o(i.osMutexNew)
    i.osThreadNew                            0x08004330   Section        0  cmsis_os2.o(i.osThreadNew)
    i.prvAddCurrentTaskToDelayedList         0x080043d4   Section        0  tasks.o(i.prvAddCurrentTaskToDelayedList)
    prvAddCurrentTaskToDelayedList           0x080043d5   Thumb Code    84  tasks.o(i.prvAddCurrentTaskToDelayedList)
    i.prvAddNewTaskToReadyList               0x08004430   Section        0  tasks.o(i.prvAddNewTaskToReadyList)
    prvAddNewTaskToReadyList                 0x08004431   Thumb Code   190  tasks.o(i.prvAddNewTaskToReadyList)
    i.prvCheckForValidListAndQueue           0x08004500   Section        0  timers.o(i.prvCheckForValidListAndQueue)
    prvCheckForValidListAndQueue             0x08004501   Thumb Code    72  timers.o(i.prvCheckForValidListAndQueue)
    i.prvCopyDataFromQueue                   0x08004558   Section        0  queue.o(i.prvCopyDataFromQueue)
    prvCopyDataFromQueue                     0x08004559   Thumb Code    38  queue.o(i.prvCopyDataFromQueue)
    i.prvCopyDataToQueue                     0x0800457e   Section        0  queue.o(i.prvCopyDataToQueue)
    prvCopyDataToQueue                       0x0800457f   Thumb Code   108  queue.o(i.prvCopyDataToQueue)
    i.prvDeleteTCB                           0x080045ea   Section        0  tasks.o(i.prvDeleteTCB)
    prvDeleteTCB                             0x080045eb   Thumb Code    52  tasks.o(i.prvDeleteTCB)
    i.prvHeapInit                            0x08004620   Section        0  heap_4.o(i.prvHeapInit)
    prvHeapInit                              0x08004621   Thumb Code    66  heap_4.o(i.prvHeapInit)
    i.prvIdleTask                            0x0800466c   Section        0  tasks.o(i.prvIdleTask)
    prvIdleTask                              0x0800466d   Thumb Code    82  tasks.o(i.prvIdleTask)
    i.prvInitialiseMutex                     0x080046cc   Section        0  queue.o(i.prvInitialiseMutex)
    prvInitialiseMutex                       0x080046cd   Thumb Code    22  queue.o(i.prvInitialiseMutex)
    i.prvInitialiseNewQueue                  0x080046e4   Section        0  queue.o(i.prvInitialiseNewQueue)
    prvInitialiseNewQueue                    0x080046e5   Thumb Code    34  queue.o(i.prvInitialiseNewQueue)
    i.prvInitialiseNewTask                   0x08004708   Section        0  tasks.o(i.prvInitialiseNewTask)
    prvInitialiseNewTask                     0x08004709   Thumb Code   176  tasks.o(i.prvInitialiseNewTask)
    i.prvInsertBlockIntoFreeList             0x080047b8   Section        0  heap_4.o(i.prvInsertBlockIntoFreeList)
    prvInsertBlockIntoFreeList               0x080047b9   Thumb Code    72  heap_4.o(i.prvInsertBlockIntoFreeList)
    i.prvInsertTimerInActiveList             0x08004804   Section        0  timers.o(i.prvInsertTimerInActiveList)
    prvInsertTimerInActiveList               0x08004805   Thumb Code    52  timers.o(i.prvInsertTimerInActiveList)
    i.prvIsQueueEmpty                        0x0800483c   Section        0  queue.o(i.prvIsQueueEmpty)
    prvIsQueueEmpty                          0x0800483d   Thumb Code    28  queue.o(i.prvIsQueueEmpty)
    i.prvProcessReceivedCommands             0x08004858   Section        0  timers.o(i.prvProcessReceivedCommands)
    prvProcessReceivedCommands               0x08004859   Thumb Code   248  timers.o(i.prvProcessReceivedCommands)
    i.prvProcessTimerOrBlockTask             0x08004954   Section        0  timers.o(i.prvProcessTimerOrBlockTask)
    prvProcessTimerOrBlockTask               0x08004955   Thumb Code   182  timers.o(i.prvProcessTimerOrBlockTask)
    i.prvResetNextTaskUnblockTime            0x08004a14   Section        0  tasks.o(i.prvResetNextTaskUnblockTime)
    prvResetNextTaskUnblockTime              0x08004a15   Thumb Code    26  tasks.o(i.prvResetNextTaskUnblockTime)
    i.prvSampleTimeNow                       0x08004a34   Section        0  timers.o(i.prvSampleTimeNow)
    prvSampleTimeNow                         0x08004a35   Thumb Code    36  timers.o(i.prvSampleTimeNow)
    i.prvSwitchTimerLists                    0x08004a5c   Section        0  timers.o(i.prvSwitchTimerLists)
    prvSwitchTimerLists                      0x08004a5d   Thumb Code   104  timers.o(i.prvSwitchTimerLists)
    i.prvTaskExitError                       0x08004ac8   Section        0  port.o(i.prvTaskExitError)
    prvTaskExitError                         0x08004ac9   Thumb Code    36  port.o(i.prvTaskExitError)
    i.prvTimerTask                           0x08004af0   Section        0  timers.o(i.prvTimerTask)
    prvTimerTask                             0x08004af1   Thumb Code    32  timers.o(i.prvTimerTask)
    i.prvUnlockQueue                         0x08004b14   Section        0  queue.o(i.prvUnlockQueue)
    prvUnlockQueue                           0x08004b15   Thumb Code   106  queue.o(i.prvUnlockQueue)
    i.pvPortMalloc                           0x08004b80   Section        0  heap_4.o(i.pvPortMalloc)
    i.pxPortInitialiseStack                  0x08004c58   Section        0  port.o(i.pxPortInitialiseStack)
    i.uxListRemove                           0x08004c84   Section        0  list.o(i.uxListRemove)
    i.vApplicationGetIdleTaskMemory          0x08004cac   Section        0  cmsis_os2.o(i.vApplicationGetIdleTaskMemory)
    i.vApplicationGetTimerTaskMemory         0x08004cc0   Section        0  cmsis_os2.o(i.vApplicationGetTimerTaskMemory)
    i.vListInitialise                        0x08004cd8   Section        0  list.o(i.vListInitialise)
    i.vListInitialiseItem                    0x08004cee   Section        0  list.o(i.vListInitialiseItem)
    i.vListInsert                            0x08004cf4   Section        0  list.o(i.vListInsert)
    i.vListInsertEnd                         0x08004d24   Section        0  list.o(i.vListInsertEnd)
    i.vPortEnterCritical                     0x08004d3c   Section        0  port.o(i.vPortEnterCritical)
    i.vPortExitCritical                      0x08004d7c   Section        0  port.o(i.vPortExitCritical)
    i.vPortFree                              0x08004da4   Section        0  heap_4.o(i.vPortFree)
    i.vPortSetupTimerInterrupt               0x08004e00   Section        0  port.o(i.vPortSetupTimerInterrupt)
    i.vPortValidateInterruptPriority         0x08004e24   Section        0  port.o(i.vPortValidateInterruptPriority)
    i.vQueueAddToRegistry                    0x08004e78   Section        0  queue.o(i.vQueueAddToRegistry)
    i.vQueueWaitForMessageRestricted         0x08004ea0   Section        0  queue.o(i.vQueueWaitForMessageRestricted)
    i.vTaskDelay                             0x08004ee4   Section        0  tasks.o(i.vTaskDelay)
    i.vTaskInternalSetTimeOutState           0x08004f30   Section        0  tasks.o(i.vTaskInternalSetTimeOutState)
    i.vTaskMissedYield                       0x08004f40   Section        0  tasks.o(i.vTaskMissedYield)
    i.vTaskPlaceOnEventList                  0x08004f4c   Section        0  tasks.o(i.vTaskPlaceOnEventList)
    i.vTaskPlaceOnEventListRestricted        0x08004f7c   Section        0  tasks.o(i.vTaskPlaceOnEventListRestricted)
    i.vTaskStartScheduler                    0x08004fb4   Section        0  tasks.o(i.vTaskStartScheduler)
    i.vTaskSuspendAll                        0x0800503c   Section        0  tasks.o(i.vTaskSuspendAll)
    i.vTaskSwitchContext                     0x0800504c   Section        0  tasks.o(i.vTaskSwitchContext)
    i.xPortStartScheduler                    0x080050b0   Section        0  port.o(i.xPortStartScheduler)
    i.xPortSysTickHandler                    0x080051a4   Section        0  port.o(i.xPortSysTickHandler)
    i.xQueueCreateMutex                      0x080051d0   Section        0  queue.o(i.xQueueCreateMutex)
    i.xQueueCreateMutexStatic                0x080051e6   Section        0  queue.o(i.xQueueCreateMutexStatic)
    i.xQueueGenericCreate                    0x08005200   Section        0  queue.o(i.xQueueGenericCreate)
    i.xQueueGenericCreateStatic              0x08005248   Section        0  queue.o(i.xQueueGenericCreateStatic)
    i.xQueueGenericReset                     0x080052b0   Section        0  queue.o(i.xQueueGenericReset)
    i.xQueueGenericSend                      0x08005338   Section        0  queue.o(i.xQueueGenericSend)
    i.xQueueGenericSendFromISR               0x08005498   Section        0  queue.o(i.xQueueGenericSendFromISR)
    i.xQueueReceive                          0x08005554   Section        0  queue.o(i.xQueueReceive)
    i.xQueueReceiveFromISR                   0x0800568c   Section        0  queue.o(i.xQueueReceiveFromISR)
    i.xTaskCheckForTimeOut                   0x08005728   Section        0  tasks.o(i.xTaskCheckForTimeOut)
    i.xTaskCreate                            0x0800579c   Section        0  tasks.o(i.xTaskCreate)
    i.xTaskCreateStatic                      0x080057f6   Section        0  tasks.o(i.xTaskCreateStatic)
    i.xTaskGetSchedulerState                 0x0800584c   Section        0  tasks.o(i.xTaskGetSchedulerState)
    i.xTaskGetTickCount                      0x08005868   Section        0  tasks.o(i.xTaskGetTickCount)
    i.xTaskIncrementTick                     0x08005874   Section        0  tasks.o(i.xTaskIncrementTick)
    i.xTaskPriorityDisinherit                0x0800593c   Section        0  tasks.o(i.xTaskPriorityDisinherit)
    i.xTaskRemoveFromEventList               0x080059bc   Section        0  tasks.o(i.xTaskRemoveFromEventList)
    i.xTaskResumeAll                         0x08005a2c   Section        0  tasks.o(i.xTaskResumeAll)
    i.xTimerCreateTimerTask                  0x08005af0   Section        0  timers.o(i.xTimerCreateTimerTask)
    i.xTimerGenericCommand                   0x08005b50   Section        0  timers.o(i.xTimerGenericCommand)
    .constdata                               0x08005bb8   Section      208  freertos.o(.constdata)
    .constdata                               0x08005c88   Section       16  system_stm32f4xx.o(.constdata)
    .constdata                               0x08005c98   Section        8  system_stm32f4xx.o(.constdata)
    .conststring                             0x08005ca0   Section       88  freertos.o(.conststring)
    .data                                    0x20000000   Section        8  main.o(.data)
    s_systick_counter_us_init                0x20000000   Data           4  main.o(.data)
    s_systick_counter_us                     0x20000004   Data           4  main.o(.data)
    .data                                    0x20000008   Section       28  freertos.o(.data)
    .data                                    0x20000024   Section        2  usart.o(.data)
    .data                                    0x20000028   Section       60  tasks.o(.data)
    pxDelayedTaskList                        0x2000002c   Data           4  tasks.o(.data)
    pxOverflowDelayedTaskList                0x20000030   Data           4  tasks.o(.data)
    uxDeletedTasksWaitingCleanUp             0x20000034   Data           4  tasks.o(.data)
    uxCurrentNumberOfTasks                   0x20000038   Data           4  tasks.o(.data)
    xTickCount                               0x2000003c   Data           4  tasks.o(.data)
    uxTopReadyPriority                       0x20000040   Data           4  tasks.o(.data)
    xSchedulerRunning                        0x20000044   Data           4  tasks.o(.data)
    uxPendedTicks                            0x20000048   Data           4  tasks.o(.data)
    xYieldPending                            0x2000004c   Data           4  tasks.o(.data)
    xNumOfOverflows                          0x20000050   Data           4  tasks.o(.data)
    uxTaskNumber                             0x20000054   Data           4  tasks.o(.data)
    xNextTaskUnblockTime                     0x20000058   Data           4  tasks.o(.data)
    xIdleTaskHandle                          0x2000005c   Data           4  tasks.o(.data)
    uxSchedulerSuspended                     0x20000060   Data           4  tasks.o(.data)
    .data                                    0x20000064   Section       20  timers.o(.data)
    pxCurrentTimerList                       0x20000064   Data           4  timers.o(.data)
    pxOverflowTimerList                      0x20000068   Data           4  timers.o(.data)
    xTimerQueue                              0x2000006c   Data           4  timers.o(.data)
    xTimerTaskHandle                         0x20000070   Data           4  timers.o(.data)
    xLastTime                                0x20000074   Data           4  timers.o(.data)
    .data                                    0x20000078   Section        4  cmsis_os2.o(.data)
    KernelState                              0x20000078   Data           4  cmsis_os2.o(.data)
    .data                                    0x2000007c   Section       24  heap_4.o(.data)
    pxEnd                                    0x2000007c   Data           4  heap_4.o(.data)
    xFreeBytesRemaining                      0x20000080   Data           4  heap_4.o(.data)
    xMinimumEverFreeBytesRemaining           0x20000084   Data           4  heap_4.o(.data)
    xBlockAllocatedBit                       0x20000088   Data           4  heap_4.o(.data)
    xStart                                   0x2000008c   Data           8  heap_4.o(.data)
    .data                                    0x20000094   Section       12  port.o(.data)
    ucMaxSysCallPriority                     0x20000094   Data           1  port.o(.data)
    uxCriticalNesting                        0x20000098   Data           4  port.o(.data)
    ulMaxPRIGROUPValue                       0x2000009c   Data           4  port.o(.data)
    .data                                    0x200000a0   Section       12  stm32f4xx_hal.o(.data)
    .data                                    0x200000ac   Section        4  system_stm32f4xx.o(.data)
    .data                                    0x200000b0   Section        4  stdout.o(.data)
    .bss                                     0x200000b4   Section       72  adc.o(.bss)
    .bss                                     0x200000fc   Section       88  spi.o(.bss)
    .bss                                     0x20000154   Section      128  tim.o(.bss)
    .bss                                     0x200001d4   Section     1152  usart.o(.bss)
    .bss                                     0x20000654   Section       64  queue.o(.bss)
    .bss                                     0x20000694   Section     1220  tasks.o(.bss)
    pxReadyTasksLists                        0x20000694   Data        1120  tasks.o(.bss)
    xDelayedTaskList1                        0x20000af4   Data          20  tasks.o(.bss)
    xDelayedTaskList2                        0x20000b08   Data          20  tasks.o(.bss)
    xPendingReadyList                        0x20000b1c   Data          20  tasks.o(.bss)
    xTasksWaitingTermination                 0x20000b30   Data          20  tasks.o(.bss)
    xSuspendedTaskList                       0x20000b44   Data          20  tasks.o(.bss)
    .bss                                     0x20000b58   Section      280  timers.o(.bss)
    xActiveTimerList1                        0x20000b58   Data          20  timers.o(.bss)
    xActiveTimerList2                        0x20000b6c   Data          20  timers.o(.bss)
    xStaticTimerQueue                        0x20000b80   Data          80  timers.o(.bss)
    ucStaticTimerQueueStorage                0x20000bd0   Data         160  timers.o(.bss)
    .bss                                     0x20000c70   Section     1720  cmsis_os2.o(.bss)
    Idle_TCB                                 0x20000c70   Data          92  cmsis_os2.o(.bss)
    Idle_Stack                               0x20000ccc   Data         512  cmsis_os2.o(.bss)
    Timer_TCB                                0x20000ecc   Data          92  cmsis_os2.o(.bss)
    Timer_Stack                              0x20000f28   Data        1024  cmsis_os2.o(.bss)
    .bss                                     0x20001328   Section    15360  heap_4.o(.bss)
    ucHeap                                   0x20001328   Data       15360  heap_4.o(.bss)
    STACK                                    0x20004f28   Section     1024  startup_stm32f407xx.o(STACK)

    Global Symbols

    Symbol Name                              Value     Ov Type        Size  Object(Section)

    BuildAttributes$$THM_ISAv4$E$P$D$K$B$S$7EM$VFPi3$EXTD16$VFPS$VFMA$PE$A:L22UL41UL21$X:L11$S22US41US21$IEEE1$IW$USESV6$~STKCKD$USESV7$~SHL$OSPACE$ROPI$EBA8$MICROLIB$REQ8$PRES8$EABIv2 0x00000000   Number         0  anon$$obj.o ABSOLUTE
    __ARM_use_no_argv                        0x00000000   Number         0  main.o ABSOLUTE
    _printf_a                                0x00000000   Number         0  stubs.o ABSOLUTE
    _printf_c                                0x00000000   Number         0  stubs.o ABSOLUTE
    _printf_charcount                        0x00000000   Number         0  stubs.o ABSOLUTE
    _printf_d                                0x00000000   Number         0  stubs.o ABSOLUTE
    _printf_e                                0x00000000   Number         0  stubs.o ABSOLUTE
    _printf_f                                0x00000000   Number         0  stubs.o ABSOLUTE
    _printf_flags                            0x00000000   Number         0  stubs.o ABSOLUTE
    _printf_fp_dec                           0x00000000   Number         0  stubs.o ABSOLUTE
    _printf_fp_hex                           0x00000000   Number         0  stubs.o ABSOLUTE
    _printf_g                                0x00000000   Number         0  stubs.o ABSOLUTE
    _printf_i                                0x00000000   Number         0  stubs.o ABSOLUTE
    _printf_int_dec                          0x00000000   Number         0  stubs.o ABSOLUTE
    _printf_l                                0x00000000   Number         0  stubs.o ABSOLUTE
    _printf_lc                               0x00000000   Number         0  stubs.o ABSOLUTE
    _printf_ll                               0x00000000   Number         0  stubs.o ABSOLUTE
    _printf_lld                              0x00000000   Number         0  stubs.o ABSOLUTE
    _printf_lli                              0x00000000   Number         0  stubs.o ABSOLUTE
    _printf_llo                              0x00000000   Number         0  stubs.o ABSOLUTE
    _printf_llu                              0x00000000   Number         0  stubs.o ABSOLUTE
    _printf_llx                              0x00000000   Number         0  stubs.o ABSOLUTE
    _printf_longlong_dec                     0x00000000   Number         0  stubs.o ABSOLUTE
    _printf_longlong_hex                     0x00000000   Number         0  stubs.o ABSOLUTE
    _printf_longlong_oct                     0x00000000   Number         0  stubs.o ABSOLUTE
    _printf_ls                               0x00000000   Number         0  stubs.o ABSOLUTE
    _printf_mbtowc                           0x00000000   Number         0  stubs.o ABSOLUTE
    _printf_n                                0x00000000   Number         0  stubs.o ABSOLUTE
    _printf_o                                0x00000000   Number         0  stubs.o ABSOLUTE
    _printf_p                                0x00000000   Number         0  stubs.o ABSOLUTE
    _printf_percent                          0x00000000   Number         0  stubs.o ABSOLUTE
    _printf_pre_padding                      0x00000000   Number         0  stubs.o ABSOLUTE
    _printf_return_value                     0x00000000   Number         0  stubs.o ABSOLUTE
    _printf_s                                0x00000000   Number         0  stubs.o ABSOLUTE
    _printf_sizespec                         0x00000000   Number         0  stubs.o ABSOLUTE
    _printf_str                              0x00000000   Number         0  stubs.o ABSOLUTE
    _printf_truncate_signed                  0x00000000   Number         0  stubs.o ABSOLUTE
    _printf_truncate_unsigned                0x00000000   Number         0  stubs.o ABSOLUTE
    _printf_u                                0x00000000   Number         0  stubs.o ABSOLUTE
    _printf_wc                               0x00000000   Number         0  stubs.o ABSOLUTE
    _printf_wctomb                           0x00000000   Number         0  stubs.o ABSOLUTE
    _printf_widthprec                        0x00000000   Number         0  stubs.o ABSOLUTE
    _printf_x                                0x00000000   Number         0  stubs.o ABSOLUTE
    __arm_fini_                               - Undefined Weak Reference
    __cpp_initialize__aeabi_                  - Undefined Weak Reference
    __cxa_finalize                            - Undefined Weak Reference
    __decompress                              - Undefined Weak Reference
    _clock_init                               - Undefined Weak Reference
    _microlib_exit                            - Undefined Weak Reference
    __Vectors_Size                           0x00000188   Number         0  startup_stm32f407xx.o ABSOLUTE
    __Vectors                                0x08000000   Data           4  startup_stm32f407xx.o(RESET)
    __Vectors_End                            0x08000188   Data           0  startup_stm32f407xx.o(RESET)
    __main                                   0x08000189   Thumb Code     0  entry.o(.ARM.Collect$$$$00000000)
    _main_stk                                0x08000189   Thumb Code     0  entry2.o(.ARM.Collect$$$$00000001)
    _main_scatterload                        0x0800018d   Thumb Code     0  entry5.o(.ARM.Collect$$$$00000004)
    __main_after_scatterload                 0x08000191   Thumb Code     0  entry5.o(.ARM.Collect$$$$00000004)
    _main_clock                              0x08000191   Thumb Code     0  entry7b.o(.ARM.Collect$$$$00000008)
    _main_cpp_init                           0x08000191   Thumb Code     0  entry8b.o(.ARM.Collect$$$$0000000A)
    _main_init                               0x08000191   Thumb Code     0  entry9a.o(.ARM.Collect$$$$0000000B)
    __rt_lib_shutdown_fini                   0x08000199   Thumb Code     0  entry12b.o(.ARM.Collect$$$$0000000E)
    __rt_final_cpp                           0x0800019d   Thumb Code     0  entry10a.o(.ARM.Collect$$$$0000000F)
    __rt_final_exit                          0x0800019d   Thumb Code     0  entry11a.o(.ARM.Collect$$$$00000011)
    SVC_Handler                              0x080001a1   Thumb Code    28  port.o(.emb_text)
    __asm___6_port_c_39a90d8d__prvStartFirstTask 0x080001c1   Thumb Code    36  port.o(.emb_text)
    __asm___6_port_c_39a90d8d__prvEnableVFP  0x080001e9   Thumb Code    16  port.o(.emb_text)
    PendSV_Handler                           0x080001fd   Thumb Code    88  port.o(.emb_text)
    vPortGetIPSR                             0x08000259   Thumb Code     6  port.o(.emb_text)
    Reset_Handler                            0x08000261   Thumb Code     8  startup_stm32f407xx.o(.text)
    ADC_IRQHandler                           0x0800027b   Thumb Code     0  startup_stm32f407xx.o(.text)
    CAN1_RX0_IRQHandler                      0x0800027b   Thumb Code     0  startup_stm32f407xx.o(.text)
    CAN1_RX1_IRQHandler                      0x0800027b   Thumb Code     0  startup_stm32f407xx.o(.text)
    CAN1_SCE_IRQHandler                      0x0800027b   Thumb Code     0  startup_stm32f407xx.o(.text)
    CAN1_TX_IRQHandler                       0x0800027b   Thumb Code     0  startup_stm32f407xx.o(.text)
    CAN2_RX0_IRQHandler                      0x0800027b   Thumb Code     0  startup_stm32f407xx.o(.text)
    CAN2_RX1_IRQHandler                      0x0800027b   Thumb Code     0  startup_stm32f407xx.o(.text)
    CAN2_SCE_IRQHandler                      0x0800027b   Thumb Code     0  startup_stm32f407xx.o(.text)
    CAN2_TX_IRQHandler                       0x0800027b   Thumb Code     0  startup_stm32f407xx.o(.text)
    DCMI_IRQHandler                          0x0800027b   Thumb Code     0  startup_stm32f407xx.o(.text)
    DMA1_Stream0_IRQHandler                  0x0800027b   Thumb Code     0  startup_stm32f407xx.o(.text)
    DMA1_Stream1_IRQHandler                  0x0800027b   Thumb Code     0  startup_stm32f407xx.o(.text)
    DMA1_Stream2_IRQHandler                  0x0800027b   Thumb Code     0  startup_stm32f407xx.o(.text)
    DMA1_Stream3_IRQHandler                  0x0800027b   Thumb Code     0  startup_stm32f407xx.o(.text)
    DMA1_Stream4_IRQHandler                  0x0800027b   Thumb Code     0  startup_stm32f407xx.o(.text)
    DMA1_Stream5_IRQHandler                  0x0800027b   Thumb Code     0  startup_stm32f407xx.o(.text)
    DMA1_Stream6_IRQHandler                  0x0800027b   Thumb Code     0  startup_stm32f407xx.o(.text)
    DMA1_Stream7_IRQHandler                  0x0800027b   Thumb Code     0  startup_stm32f407xx.o(.text)
    DMA2_Stream0_IRQHandler                  0x0800027b   Thumb Code     0  startup_stm32f407xx.o(.text)
    DMA2_Stream1_IRQHandler                  0x0800027b   Thumb Code     0  startup_stm32f407xx.o(.text)
    DMA2_Stream2_IRQHandler                  0x0800027b   Thumb Code     0  startup_stm32f407xx.o(.text)
    DMA2_Stream3_IRQHandler                  0x0800027b   Thumb Code     0  startup_stm32f407xx.o(.text)
    DMA2_Stream4_IRQHandler                  0x0800027b   Thumb Code     0  startup_stm32f407xx.o(.text)
    DMA2_Stream5_IRQHandler                  0x0800027b   Thumb Code     0  startup_stm32f407xx.o(.text)
    DMA2_Stream6_IRQHandler                  0x0800027b   Thumb Code     0  startup_stm32f407xx.o(.text)
    DMA2_Stream7_IRQHandler                  0x0800027b   Thumb Code     0  startup_stm32f407xx.o(.text)
    ETH_IRQHandler                           0x0800027b   Thumb Code     0  startup_stm32f407xx.o(.text)
    ETH_WKUP_IRQHandler                      0x0800027b   Thumb Code     0  startup_stm32f407xx.o(.text)
    EXTI0_IRQHandler                         0x0800027b   Thumb Code     0  startup_stm32f407xx.o(.text)
    EXTI15_10_IRQHandler                     0x0800027b   Thumb Code     0  startup_stm32f407xx.o(.text)
    EXTI1_IRQHandler                         0x0800027b   Thumb Code     0  startup_stm32f407xx.o(.text)
    EXTI2_IRQHandler                         0x0800027b   Thumb Code     0  startup_stm32f407xx.o(.text)
    EXTI3_IRQHandler                         0x0800027b   Thumb Code     0  startup_stm32f407xx.o(.text)
    EXTI9_5_IRQHandler                       0x0800027b   Thumb Code     0  startup_stm32f407xx.o(.text)
    FLASH_IRQHandler                         0x0800027b   Thumb Code     0  startup_stm32f407xx.o(.text)
    FMC_IRQHandler                           0x0800027b   Thumb Code     0  startup_stm32f407xx.o(.text)
    FPU_IRQHandler                           0x0800027b   Thumb Code     0  startup_stm32f407xx.o(.text)
    HASH_RNG_IRQHandler                      0x0800027b   Thumb Code     0  startup_stm32f407xx.o(.text)
    I2C1_ER_IRQHandler                       0x0800027b   Thumb Code     0  startup_stm32f407xx.o(.text)
    I2C1_EV_IRQHandler                       0x0800027b   Thumb Code     0  startup_stm32f407xx.o(.text)
    I2C2_ER_IRQHandler                       0x0800027b   Thumb Code     0  startup_stm32f407xx.o(.text)
    I2C2_EV_IRQHandler                       0x0800027b   Thumb Code     0  startup_stm32f407xx.o(.text)
    I2C3_ER_IRQHandler                       0x0800027b   Thumb Code     0  startup_stm32f407xx.o(.text)
    I2C3_EV_IRQHandler                       0x0800027b   Thumb Code     0  startup_stm32f407xx.o(.text)
    OTG_FS_IRQHandler                        0x0800027b   Thumb Code     0  startup_stm32f407xx.o(.text)
    OTG_FS_WKUP_IRQHandler                   0x0800027b   Thumb Code     0  startup_stm32f407xx.o(.text)
    OTG_HS_EP1_IN_IRQHandler                 0x0800027b   Thumb Code     0  startup_stm32f407xx.o(.text)
    OTG_HS_EP1_OUT_IRQHandler                0x0800027b   Thumb Code     0  startup_stm32f407xx.o(.text)
    OTG_HS_IRQHandler                        0x0800027b   Thumb Code     0  startup_stm32f407xx.o(.text)
    OTG_HS_WKUP_IRQHandler                   0x0800027b   Thumb Code     0  startup_stm32f407xx.o(.text)
    PVD_IRQHandler                           0x0800027b   Thumb Code     0  startup_stm32f407xx.o(.text)
    RCC_IRQHandler                           0x0800027b   Thumb Code     0  startup_stm32f407xx.o(.text)
    RTC_Alarm_IRQHandler                     0x0800027b   Thumb Code     0  startup_stm32f407xx.o(.text)
    RTC_WKUP_IRQHandler                      0x0800027b   Thumb Code     0  startup_stm32f407xx.o(.text)
    SDIO_IRQHandler                          0x0800027b   Thumb Code     0  startup_stm32f407xx.o(.text)
    SPI1_IRQHandler                          0x0800027b   Thumb Code     0  startup_stm32f407xx.o(.text)
    SPI2_IRQHandler                          0x0800027b   Thumb Code     0  startup_stm32f407xx.o(.text)
    SPI3_IRQHandler                          0x0800027b   Thumb Code     0  startup_stm32f407xx.o(.text)
    TAMP_STAMP_IRQHandler                    0x0800027b   Thumb Code     0  startup_stm32f407xx.o(.text)
    TIM1_BRK_TIM9_IRQHandler                 0x0800027b   Thumb Code     0  startup_stm32f407xx.o(.text)
    TIM1_CC_IRQHandler                       0x0800027b   Thumb Code     0  startup_stm32f407xx.o(.text)
    TIM1_TRG_COM_TIM11_IRQHandler            0x0800027b   Thumb Code     0  startup_stm32f407xx.o(.text)
    TIM1_UP_TIM10_IRQHandler                 0x0800027b   Thumb Code     0  startup_stm32f407xx.o(.text)
    TIM2_IRQHandler                          0x0800027b   Thumb Code     0  startup_stm32f407xx.o(.text)
    TIM4_IRQHandler                          0x0800027b   Thumb Code     0  startup_stm32f407xx.o(.text)
    TIM5_IRQHandler                          0x0800027b   Thumb Code     0  startup_stm32f407xx.o(.text)
    TIM6_DAC_IRQHandler                      0x0800027b   Thumb Code     0  startup_stm32f407xx.o(.text)
    TIM7_IRQHandler                          0x0800027b   Thumb Code     0  startup_stm32f407xx.o(.text)
    TIM8_BRK_TIM12_IRQHandler                0x0800027b   Thumb Code     0  startup_stm32f407xx.o(.text)
    TIM8_CC_IRQHandler                       0x0800027b   Thumb Code     0  startup_stm32f407xx.o(.text)
    TIM8_UP_TIM13_IRQHandler                 0x0800027b   Thumb Code     0  startup_stm32f407xx.o(.text)
    UART4_IRQHandler                         0x0800027b   Thumb Code     0  startup_stm32f407xx.o(.text)
    UART5_IRQHandler                         0x0800027b   Thumb Code     0  startup_stm32f407xx.o(.text)
    USART3_IRQHandler                        0x0800027b   Thumb Code     0  startup_stm32f407xx.o(.text)
    USART6_IRQHandler                        0x0800027b   Thumb Code     0  startup_stm32f407xx.o(.text)
    WWDG_IRQHandler                          0x0800027b   Thumb Code     0  startup_stm32f407xx.o(.text)
    __aeabi_uldivmod                         0x08000285   Thumb Code    98  uldiv.o(.text)
    __aeabi_memcpy                           0x080002e7   Thumb Code    36  memcpya.o(.text)
    __aeabi_memcpy4                          0x080002e7   Thumb Code     0  memcpya.o(.text)
    __aeabi_memcpy8                          0x080002e7   Thumb Code     0  memcpya.o(.text)
    __aeabi_memset                           0x0800030b   Thumb Code    14  memseta.o(.text)
    __aeabi_memset4                          0x0800030b   Thumb Code     0  memseta.o(.text)
    __aeabi_memset8                          0x0800030b   Thumb Code     0  memseta.o(.text)
    __aeabi_memclr                           0x08000319   Thumb Code     4  memseta.o(.text)
    __aeabi_memclr4                          0x08000319   Thumb Code     0  memseta.o(.text)
    __aeabi_memclr8                          0x08000319   Thumb Code     0  memseta.o(.text)
    memset                                   0x0800031d   Thumb Code    18  memseta.o(.text)
    strlen                                   0x0800032f   Thumb Code    14  strlen.o(.text)
    __aeabi_uidiv                            0x0800033d   Thumb Code     0  uidiv.o(.text)
    __aeabi_uidivmod                         0x0800033d   Thumb Code    44  uidiv.o(.text)
    __aeabi_llsl                             0x08000369   Thumb Code    30  llshl.o(.text)
    _ll_shift_l                              0x08000369   Thumb Code     0  llshl.o(.text)
    __aeabi_llsr                             0x08000387   Thumb Code    32  llushr.o(.text)
    _ll_ushift_r                             0x08000387   Thumb Code     0  llushr.o(.text)
    __I$use$fp                               0x080003a7   Thumb Code     0  iusefp.o(.text)
    __aeabi_dadd                             0x080003a7   Thumb Code   322  dadd.o(.text)
    __aeabi_dsub                             0x080004e9   Thumb Code     6  dadd.o(.text)
    __aeabi_drsub                            0x080004ef   Thumb Code     6  dadd.o(.text)
    __aeabi_dmul                             0x080004f5   Thumb Code   228  dmul.o(.text)
    __aeabi_ddiv                             0x080005d9   Thumb Code   222  ddiv.o(.text)
    __aeabi_d2ulz                            0x080006b7   Thumb Code    48  dfixul.o(.text)
    __aeabi_cdrcmple                         0x080006e9   Thumb Code    48  cdrcmple.o(.text)
    __scatterload                            0x08000719   Thumb Code    28  init.o(.text)
    __scatterload_rt2                        0x08000719   Thumb Code     0  init.o(.text)
    __aeabi_lasr                             0x0800073d   Thumb Code    36  llsshr.o(.text)
    _ll_sshift_r                             0x0800073d   Thumb Code     0  llsshr.o(.text)
    _double_round                            0x08000761   Thumb Code    30  depilogue.o(.text)
    _double_epilogue                         0x0800077f   Thumb Code   156  depilogue.o(.text)
    AT24CXX_Init                             0x08000945   Thumb Code     4  24cxx.o(i.AT24CXX_Init)
    AT24CXX_Read                             0x08000949   Thumb Code    34  24cxx.o(i.AT24CXX_Read)
    AT24CXX_ReadOneByte                      0x0800096b   Thumb Code    66  24cxx.o(i.AT24CXX_ReadOneByte)
    AT24CXX_Write                            0x080009ad   Thumb Code    32  24cxx.o(i.AT24CXX_Write)
    AT24CXX_WriteOneByte                     0x080009cd   Thumb Code    64  24cxx.o(i.AT24CXX_WriteOneByte)
    BSP_W25Qx_Erase_Block                    0x08000a0d   Thumb Code   106  w25qxx.o(i.BSP_W25Qx_Erase_Block)
    BSP_W25Qx_Init                           0x08000ad9   Thumb Code    94  w25qxx.o(i.BSP_W25Qx_Init)
    BSP_W25Qx_Read                           0x08000b81   Thumb Code    98  w25qxx.o(i.BSP_W25Qx_Read)
    BSP_W25Qx_Read_ID                        0x08000bed   Thumb Code    66  w25qxx.o(i.BSP_W25Qx_Read_ID)
    BSP_W25Qx_Write                          0x08000c3d   Thumb Code   194  w25qxx.o(i.BSP_W25Qx_Write)
    BSP_W25Qx_WriteEnable                    0x08000d09   Thumb Code    82  w25qxx.o(i.BSP_W25Qx_WriteEnable)
    BusFault_Handler                         0x08000d69   Thumb Code     2  stm32f4xx_it.o(i.BusFault_Handler)
    DebugMon_Handler                         0x08000d6b   Thumb Code     2  stm32f4xx_it.o(i.DebugMon_Handler)
    EXTI4_IRQHandler                         0x08000d6d   Thumb Code     6  stm32f4xx_it.o(i.EXTI4_IRQHandler)
    Error_Handler                            0x08000d73   Thumb Code     4  main.o(i.Error_Handler)
    HAL_ADCEx_InjectedConfigChannel          0x08000d79   Thumb Code   428  stm32f4xx_hal_adc_ex.o(i.HAL_ADCEx_InjectedConfigChannel)
    HAL_ADC_ConfigChannel                    0x08000f35   Thumb Code   316  stm32f4xx_hal_adc.o(i.HAL_ADC_ConfigChannel)
    HAL_ADC_Init                             0x08001081   Thumb Code    84  stm32f4xx_hal_adc.o(i.HAL_ADC_Init)
    HAL_ADC_MspInit                          0x080010d5   Thumb Code    84  adc.o(i.HAL_ADC_MspInit)
    HAL_DMA_Abort_IT                         0x08001135   Thumb Code    36  stm32f4xx_hal_dma.o(i.HAL_DMA_Abort_IT)
    HAL_GPIO_EXTI_Callback                   0x08001159   Thumb Code     2  stm32f4xx_hal_gpio.o(i.HAL_GPIO_EXTI_Callback)
    HAL_GPIO_EXTI_IRQHandler                 0x0800115d   Thumb Code    18  stm32f4xx_hal_gpio.o(i.HAL_GPIO_EXTI_IRQHandler)
    HAL_GPIO_Init                            0x08001175   Thumb Code   394  stm32f4xx_hal_gpio.o(i.HAL_GPIO_Init)
    HAL_GPIO_ReadPin                         0x0800132d   Thumb Code    10  stm32f4xx_hal_gpio.o(i.HAL_GPIO_ReadPin)
    HAL_GPIO_WritePin                        0x08001337   Thumb Code    10  stm32f4xx_hal_gpio.o(i.HAL_GPIO_WritePin)
    HAL_GetTick                              0x08001341   Thumb Code     6  stm32f4xx_hal.o(i.HAL_GetTick)
    HAL_IncTick                              0x0800134d   Thumb Code    12  stm32f4xx_hal.o(i.HAL_IncTick)
    HAL_Init                                 0x0800135d   Thumb Code    48  stm32f4xx_hal.o(i.HAL_Init)
    HAL_InitTick                             0x08001391   Thumb Code    54  stm32f4xx_hal.o(i.HAL_InitTick)
    HAL_MspInit                              0x080013d1   Thumb Code    52  stm32f4xx_hal_msp.o(i.HAL_MspInit)
    HAL_NVIC_EnableIRQ                       0x08001409   Thumb Code    26  stm32f4xx_hal_cortex.o(i.HAL_NVIC_EnableIRQ)
    HAL_NVIC_SetPriority                     0x08001425   Thumb Code    60  stm32f4xx_hal_cortex.o(i.HAL_NVIC_SetPriority)
    HAL_NVIC_SetPriorityGrouping             0x08001465   Thumb Code    26  stm32f4xx_hal_cortex.o(i.HAL_NVIC_SetPriorityGrouping)
    HAL_RCC_ClockConfig                      0x08001489   Thumb Code   288  stm32f4xx_hal_rcc.o(i.HAL_RCC_ClockConfig)
    HAL_RCC_GetPCLK1Freq                     0x080015bd   Thumb Code    20  stm32f4xx_hal_rcc.o(i.HAL_RCC_GetPCLK1Freq)
    HAL_RCC_GetPCLK2Freq                     0x080015dd   Thumb Code    20  stm32f4xx_hal_rcc.o(i.HAL_RCC_GetPCLK2Freq)
    HAL_RCC_GetSysClockFreq                  0x080015fd   Thumb Code    88  stm32f4xx_hal_rcc.o(i.HAL_RCC_GetSysClockFreq)
    HAL_RCC_OscConfig                        0x0800165d   Thumb Code   840  stm32f4xx_hal_rcc.o(i.HAL_RCC_OscConfig)
    HAL_SPI_Init                             0x080019b9   Thumb Code   128  stm32f4xx_hal_spi.o(i.HAL_SPI_Init)
    HAL_SPI_MspInit                          0x08001a39   Thumb Code    92  spi.o(i.HAL_SPI_MspInit)
    HAL_SPI_Receive                          0x08001aa1   Thumb Code   336  stm32f4xx_hal_spi.o(i.HAL_SPI_Receive)
    HAL_SPI_Transmit                         0x08001bf1   Thumb Code   348  stm32f4xx_hal_spi.o(i.HAL_SPI_Transmit)
    HAL_SPI_TransmitReceive                  0x08001d4d   Thumb Code   482  stm32f4xx_hal_spi.o(i.HAL_SPI_TransmitReceive)
    HAL_SYSTICK_Config                       0x08001f2f   Thumb Code    40  stm32f4xx_hal_cortex.o(i.HAL_SYSTICK_Config)
    HAL_TIMEx_BreakCallback                  0x08001f57   Thumb Code     2  stm32f4xx_hal_tim_ex.o(i.HAL_TIMEx_BreakCallback)
    HAL_TIMEx_CommutCallback                 0x08001f59   Thumb Code     2  stm32f4xx_hal_tim_ex.o(i.HAL_TIMEx_CommutCallback)
    HAL_TIMEx_MasterConfigSynchronization    0x08001f5d   Thumb Code   116  stm32f4xx_hal_tim_ex.o(i.HAL_TIMEx_MasterConfigSynchronization)
    HAL_TIM_Base_Init                        0x08001fed   Thumb Code    54  stm32f4xx_hal_tim.o(i.HAL_TIM_Base_Init)
    HAL_TIM_Base_MspInit                     0x08002025   Thumb Code    86  tim.o(i.HAL_TIM_Base_MspInit)
    HAL_TIM_ConfigClockSource                0x08002089   Thumb Code   214  stm32f4xx_hal_tim.o(i.HAL_TIM_ConfigClockSource)
    HAL_TIM_IC_CaptureCallback               0x0800215f   Thumb Code     2  stm32f4xx_hal_tim.o(i.HAL_TIM_IC_CaptureCallback)
    HAL_TIM_IRQHandler                       0x08002161   Thumb Code   358  stm32f4xx_hal_tim.o(i.HAL_TIM_IRQHandler)
    HAL_TIM_MspPostInit                      0x080022c9   Thumb Code    70  tim.o(i.HAL_TIM_MspPostInit)
    HAL_TIM_OC_DelayElapsedCallback          0x0800231d   Thumb Code     2  stm32f4xx_hal_tim.o(i.HAL_TIM_OC_DelayElapsedCallback)
    HAL_TIM_PWM_ConfigChannel                0x0800231f   Thumb Code   208  stm32f4xx_hal_tim.o(i.HAL_TIM_PWM_ConfigChannel)
    HAL_TIM_PWM_Init                         0x080023ef   Thumb Code    54  stm32f4xx_hal_tim.o(i.HAL_TIM_PWM_Init)
    HAL_TIM_PWM_MspInit                      0x08002425   Thumb Code     2  stm32f4xx_hal_tim.o(i.HAL_TIM_PWM_MspInit)
    HAL_TIM_PWM_PulseFinishedCallback        0x08002427   Thumb Code     2  stm32f4xx_hal_tim.o(i.HAL_TIM_PWM_PulseFinishedCallback)
    HAL_TIM_PeriodElapsedCallback            0x08002429   Thumb Code     2  stm32f4xx_hal_tim.o(i.HAL_TIM_PeriodElapsedCallback)
    HAL_TIM_TriggerCallback                  0x0800242b   Thumb Code     2  stm32f4xx_hal_tim.o(i.HAL_TIM_TriggerCallback)
    HAL_UART_ErrorCallback                   0x0800242d   Thumb Code     2  stm32f4xx_hal_uart.o(i.HAL_UART_ErrorCallback)
    HAL_UART_IRQHandler                      0x08002431   Thumb Code   270  stm32f4xx_hal_uart.o(i.HAL_UART_IRQHandler)
    HAL_UART_Init                            0x08002545   Thumb Code    98  stm32f4xx_hal_uart.o(i.HAL_UART_Init)
    HAL_UART_MspInit                         0x080025a9   Thumb Code   182  usart.o(i.HAL_UART_MspInit)
    HAL_UART_Receive_IT                      0x08002671   Thumb Code    82  stm32f4xx_hal_uart.o(i.HAL_UART_Receive_IT)
    HAL_UART_RxCpltCallback                  0x080026c5   Thumb Code   218  usart.o(i.HAL_UART_RxCpltCallback)
    HAL_UART_Transmit                        0x080027b5   Thumb Code   186  stm32f4xx_hal_uart.o(i.HAL_UART_Transmit)
    HAL_UART_TxCpltCallback                  0x0800286f   Thumb Code     2  stm32f4xx_hal_uart.o(i.HAL_UART_TxCpltCallback)
    HardFault_Handler                        0x08002871   Thumb Code     2  stm32f4xx_it.o(i.HardFault_Handler)
    IIC_Ack                                  0x08002875   Thumb Code    64  myiic.o(i.IIC_Ack)
    IIC_Init                                 0x080028b9   Thumb Code    98  myiic.o(i.IIC_Init)
    IIC_NAck                                 0x08002925   Thumb Code    64  myiic.o(i.IIC_NAck)
    IIC_Read_Byte                            0x08002969   Thumb Code   100  myiic.o(i.IIC_Read_Byte)
    IIC_Send_Byte                            0x080029d1   Thumb Code   100  myiic.o(i.IIC_Send_Byte)
    IIC_Start                                0x08002a39   Thumb Code    64  myiic.o(i.IIC_Start)
    IIC_Stop                                 0x08002a7d   Thumb Code    66  myiic.o(i.IIC_Stop)
    IIC_Wait_Ack                             0x08002ac5   Thumb Code    90  myiic.o(i.IIC_Wait_Ack)
    MX_ADC1_Init                             0x08002b25   Thumb Code   138  adc.o(i.MX_ADC1_Init)
    MX_FREERTOS_Init                         0x08002bc1   Thumb Code    98  freertos.o(i.MX_FREERTOS_Init)
    MX_GPIO_Init                             0x08002c3d   Thumb Code   222  gpio.o(i.MX_GPIO_Init)
    MX_SPI1_Init                             0x08002d31   Thumb Code    62  spi.o(i.MX_SPI1_Init)
    MX_TIM14_Init                            0x08002d79   Thumb Code    96  tim.o(i.MX_TIM14_Init)
    MX_TIM3_Init                             0x08002de1   Thumb Code    98  tim.o(i.MX_TIM3_Init)
    MX_USART1_UART_Init                      0x08002e4d   Thumb Code    54  usart.o(i.MX_USART1_UART_Init)
    MX_USART2_UART_Init                      0x08002e91   Thumb Code    54  usart.o(i.MX_USART2_UART_Init)
    MemManage_Handler                        0x08002ed5   Thumb Code     2  stm32f4xx_it.o(i.MemManage_Handler)
    NMI_Handler                              0x08002ed7   Thumb Code     2  stm32f4xx_it.o(i.NMI_Handler)
    StartDefaultTask                         0x08003021   Thumb Code     8  freertos.o(i.StartDefaultTask)
    StartTask02                              0x08003029   Thumb Code   120  freertos.o(i.StartTask02)
    StartTask04                              0x080030d9   Thumb Code    74  freertos.o(i.StartTask04)
    SysTick_Handler                          0x08003139   Thumb Code    24  stm32f4xx_it.o(i.SysTick_Handler)
    SystemClock_Config                       0x08003151   Thumb Code   142  main.o(i.SystemClock_Config)
    SystemInit                               0x080031e9   Thumb Code    22  system_stm32f4xx.o(i.SystemInit)
    TIM3_IRQHandler                          0x08003205   Thumb Code     6  stm32f4xx_it.o(i.TIM3_IRQHandler)
    TIM8_TRG_COM_TIM14_IRQHandler            0x08003211   Thumb Code     6  stm32f4xx_it.o(i.TIM8_TRG_COM_TIM14_IRQHandler)
    TIM_Base_SetConfig                       0x0800321d   Thumb Code   156  stm32f4xx_hal_tim.o(i.TIM_Base_SetConfig)
    TIM_ETR_SetConfig                        0x080032e5   Thumb Code    20  stm32f4xx_hal_tim.o(i.TIM_ETR_SetConfig)
    TIM_OC2_SetConfig                        0x08003369   Thumb Code    98  stm32f4xx_hal_tim.o(i.TIM_OC2_SetConfig)
    Task3                                    0x080034d5   Thumb Code    82  freertos.o(i.Task3)
    USART1_IRQHandler                        0x080037f1   Thumb Code     6  stm32f4xx_it.o(i.USART1_IRQHandler)
    USART2_IRQHandler                        0x080037fd   Thumb Code     6  stm32f4xx_it.o(i.USART2_IRQHandler)
    UsageFault_Handler                       0x08003809   Thumb Code     2  stm32f4xx_it.o(i.UsageFault_Handler)
    __0printf                                0x0800380d   Thumb Code    22  printfa.o(i.__0printf)
    __1printf                                0x0800380d   Thumb Code     0  printfa.o(i.__0printf)
    __2printf                                0x0800380d   Thumb Code     0  printfa.o(i.__0printf)
    __c89printf                              0x0800380d   Thumb Code     0  printfa.o(i.__0printf)
    printf                                   0x0800380d   Thumb Code     0  printfa.o(i.__0printf)
    __scatterload_copy                       0x0800384d   Thumb Code    14  handlers.o(i.__scatterload_copy)
    __scatterload_null                       0x0800385b   Thumb Code     2  handlers.o(i.__scatterload_null)
    __scatterload_zeroinit                   0x0800385d   Thumb Code    14  handlers.o(i.__scatterload_zeroinit)
    bsp_delay_us                             0x080040f9   Thumb Code    62  main.o(i.bsp_delay_us)
    fputc                                    0x08004145   Thumb Code    20  usart.o(i.fputc)
    main                                     0x0800415d   Thumb Code    58  main.o(i.main)
    osDelay                                  0x08004199   Thumb Code    46  cmsis_os2.o(i.osDelay)
    osKernelInitialize                       0x080041cd   Thumb Code    48  cmsis_os2.o(i.osKernelInitialize)
    osKernelStart                            0x08004201   Thumb Code    56  cmsis_os2.o(i.osKernelStart)
    osMessageQueueNew                        0x0800423d   Thumb Code   110  cmsis_os2.o(i.osMessageQueueNew)
    osMutexNew                               0x080042b1   Thumb Code   124  cmsis_os2.o(i.osMutexNew)
    osThreadNew                              0x08004331   Thumb Code   158  cmsis_os2.o(i.osThreadNew)
    pvPortMalloc                             0x08004b81   Thumb Code   210  heap_4.o(i.pvPortMalloc)
    pxPortInitialiseStack                    0x08004c59   Thumb Code    40  port.o(i.pxPortInitialiseStack)
    uxListRemove                             0x08004c85   Thumb Code    38  list.o(i.uxListRemove)
    vApplicationGetIdleTaskMemory            0x08004cad   Thumb Code    16  cmsis_os2.o(i.vApplicationGetIdleTaskMemory)
    vApplicationGetTimerTaskMemory           0x08004cc1   Thumb Code    18  cmsis_os2.o(i.vApplicationGetTimerTaskMemory)
    vListInitialise                          0x08004cd9   Thumb Code    22  list.o(i.vListInitialise)
    vListInitialiseItem                      0x08004cef   Thumb Code     6  list.o(i.vListInitialiseItem)
    vListInsert                              0x08004cf5   Thumb Code    48  list.o(i.vListInsert)
    vListInsertEnd                           0x08004d25   Thumb Code    24  list.o(i.vListInsertEnd)
    vPortEnterCritical                       0x08004d3d   Thumb Code    54  port.o(i.vPortEnterCritical)
    vPortExitCritical                        0x08004d7d   Thumb Code    34  port.o(i.vPortExitCritical)
    vPortFree                                0x08004da5   Thumb Code    88  heap_4.o(i.vPortFree)
    vPortSetupTimerInterrupt                 0x08004e01   Thumb Code    32  port.o(i.vPortSetupTimerInterrupt)
    vPortValidateInterruptPriority           0x08004e25   Thumb Code    74  port.o(i.vPortValidateInterruptPriority)
    vQueueAddToRegistry                      0x08004e79   Thumb Code    34  queue.o(i.vQueueAddToRegistry)
    vQueueWaitForMessageRestricted           0x08004ea1   Thumb Code    68  queue.o(i.vQueueWaitForMessageRestricted)
    vTaskDelay                               0x08004ee5   Thumb Code    66  tasks.o(i.vTaskDelay)
    vTaskInternalSetTimeOutState             0x08004f31   Thumb Code    12  tasks.o(i.vTaskInternalSetTimeOutState)
    vTaskMissedYield                         0x08004f41   Thumb Code     8  tasks.o(i.vTaskMissedYield)
    vTaskPlaceOnEventList                    0x08004f4d   Thumb Code    44  tasks.o(i.vTaskPlaceOnEventList)
    vTaskPlaceOnEventListRestricted          0x08004f7d   Thumb Code    52  tasks.o(i.vTaskPlaceOnEventListRestricted)
    vTaskStartScheduler                      0x08004fb5   Thumb Code   118  tasks.o(i.vTaskStartScheduler)
    vTaskSuspendAll                          0x0800503d   Thumb Code    10  tasks.o(i.vTaskSuspendAll)
    vTaskSwitchContext                       0x0800504d   Thumb Code    90  tasks.o(i.vTaskSwitchContext)
    xPortStartScheduler                      0x080050b1   Thumb Code   222  port.o(i.xPortStartScheduler)
    xPortSysTickHandler                      0x080051a5   Thumb Code    38  port.o(i.xPortSysTickHandler)
    xQueueCreateMutex                        0x080051d1   Thumb Code    22  queue.o(i.xQueueCreateMutex)
    xQueueCreateMutexStatic                  0x080051e7   Thumb Code    26  queue.o(i.xQueueCreateMutexStatic)
    xQueueGenericCreate                      0x08005201   Thumb Code    72  queue.o(i.xQueueGenericCreate)
    xQueueGenericCreateStatic                0x08005249   Thumb Code   102  queue.o(i.xQueueGenericCreateStatic)
    xQueueGenericReset                       0x080052b1   Thumb Code   132  queue.o(i.xQueueGenericReset)
    xQueueGenericSend                        0x08005339   Thumb Code   346  queue.o(i.xQueueGenericSend)
    xQueueGenericSendFromISR                 0x08005499   Thumb Code   188  queue.o(i.xQueueGenericSendFromISR)
    xQueueReceive                            0x08005555   Thumb Code   308  queue.o(i.xQueueReceive)
    xQueueReceiveFromISR                     0x0800568d   Thumb Code   154  queue.o(i.xQueueReceiveFromISR)
    xTaskCheckForTimeOut                     0x08005729   Thumb Code   112  tasks.o(i.xTaskCheckForTimeOut)
    xTaskCreate                              0x0800579d   Thumb Code    90  tasks.o(i.xTaskCreate)
    xTaskCreateStatic                        0x080057f7   Thumb Code    86  tasks.o(i.xTaskCreateStatic)
    xTaskGetSchedulerState                   0x0800584d   Thumb Code    22  tasks.o(i.xTaskGetSchedulerState)
    xTaskGetTickCount                        0x08005869   Thumb Code     6  tasks.o(i.xTaskGetTickCount)
    xTaskIncrementTick                       0x08005875   Thumb Code   190  tasks.o(i.xTaskIncrementTick)
    xTaskPriorityDisinherit                  0x0800593d   Thumb Code   118  tasks.o(i.xTaskPriorityDisinherit)
    xTaskRemoveFromEventList                 0x080059bd   Thumb Code    98  tasks.o(i.xTaskRemoveFromEventList)
    xTaskResumeAll                           0x08005a2d   Thumb Code   182  tasks.o(i.xTaskResumeAll)
    xTimerCreateTimerTask                    0x08005af1   Thumb Code    78  timers.o(i.xTimerCreateTimerTask)
    xTimerGenericCommand                     0x08005b51   Thumb Code    98  timers.o(i.xTimerGenericCommand)
    defaultTask_attributes                   0x08005bb8   Data          36  freertos.o(.constdata)
    myTask02_attributes                      0x08005bdc   Data          36  freertos.o(.constdata)
    myTask03_attributes                      0x08005c00   Data          36  freertos.o(.constdata)
    Task4_attributes                         0x08005c24   Data          36  freertos.o(.constdata)
    Usart1_Queue1_attributes                 0x08005c48   Data          24  freertos.o(.constdata)
    Usart2_Queue1_attributes                 0x08005c60   Data          24  freertos.o(.constdata)
    myMutex01_attributes                     0x08005c78   Data          16  freertos.o(.constdata)
    AHBPrescTable                            0x08005c88   Data          16  system_stm32f4xx.o(.constdata)
    APBPrescTable                            0x08005c98   Data           8  system_stm32f4xx.o(.constdata)
    Region$$Table$$Base                      0x08005cf8   Number         0  anon$$obj.o(Region$$Table)
    Region$$Table$$Limit                     0x08005d18   Number         0  anon$$obj.o(Region$$Table)
    defaultTaskHandle                        0x20000008   Data           4  freertos.o(.data)
    myTask02Handle                           0x2000000c   Data           4  freertos.o(.data)
    myTask03Handle                           0x20000010   Data           4  freertos.o(.data)
    Task4Handle                              0x20000014   Data           4  freertos.o(.data)
    Usart1_Queue1Handle                      0x20000018   Data           4  freertos.o(.data)
    Usart2_Queue1Handle                      0x2000001c   Data           4  freertos.o(.data)
    myMutex01Handle                          0x20000020   Data           4  freertos.o(.data)
    Uart_Len                                 0x20000024   Data           1  usart.o(.data)
    aRxBuffer                                0x20000025   Data           1  usart.o(.data)
    pxCurrentTCB                             0x20000028   Data           4  tasks.o(.data)
    uwTickFreq                               0x200000a0   Data           1  stm32f4xx_hal.o(.data)
    uwTickPrio                               0x200000a4   Data           4  stm32f4xx_hal.o(.data)
    uwTick                                   0x200000a8   Data           4  stm32f4xx_hal.o(.data)
    SystemCoreClock                          0x200000ac   Data           4  system_stm32f4xx.o(.data)
    __stdout                                 0x200000b0   Data           4  stdout.o(.data)
    hadc1                                    0x200000b4   Data          72  adc.o(.bss)
    hspi1                                    0x200000fc   Data          88  spi.o(.bss)
    htim3                                    0x20000154   Data          64  tim.o(.bss)
    htim14                                   0x20000194   Data          64  tim.o(.bss)
    RxBuf                                    0x200001d4   Data        1024  usart.o(.bss)
    huart1                                   0x200005d4   Data          64  usart.o(.bss)
    huart2                                   0x20000614   Data          64  usart.o(.bss)
    xQueueRegistry                           0x20000654   Data          64  queue.o(.bss)
    __initial_sp                             0x20005328   Data           0  startup_stm32f407xx.o(STACK)



==============================================================================

Memory Map of the image

  Image Entry point : 0x08000189

  Load Region LR_IROM1 (Base: 0x08000000, Size: 0x00005dcc, Max: 0x00100000, ABSOLUTE)

    Execution Region ER_IROM1 (Exec base: 0x08000000, Load base: 0x08000000, Size: 0x00005d18, Max: 0x00100000, ABSOLUTE)

    Exec Addr    Load Addr    Size         Type   Attr      Idx    E Section Name        Object

    0x08000000   0x08000000   0x00000188   Data   RO         5582    RESET               startup_stm32f407xx.o
    0x08000188   0x08000188   0x00000000   Code   RO         5625  * .ARM.Collect$$$$00000000  mc_w.l(entry.o)
    0x08000188   0x08000188   0x00000004   Code   RO         5902    .ARM.Collect$$$$00000001  mc_w.l(entry2.o)
    0x0800018c   0x0800018c   0x00000004   Code   RO         5905    .ARM.Collect$$$$00000004  mc_w.l(entry5.o)
    0x08000190   0x08000190   0x00000000   Code   RO         5907    .ARM.Collect$$$$00000008  mc_w.l(entry7b.o)
    0x08000190   0x08000190   0x00000000   Code   RO         5909    .ARM.Collect$$$$0000000A  mc_w.l(entry8b.o)
    0x08000190   0x08000190   0x00000008   Code   RO         5910    .ARM.Collect$$$$0000000B  mc_w.l(entry9a.o)
    0x08000198   0x08000198   0x00000004   Code   RO         5917    .ARM.Collect$$$$0000000E  mc_w.l(entry12b.o)
    0x0800019c   0x0800019c   0x00000000   Code   RO         5912    .ARM.Collect$$$$0000000F  mc_w.l(entry10a.o)
    0x0800019c   0x0800019c   0x00000000   Code   RO         5914    .ARM.Collect$$$$00000011  mc_w.l(entry11a.o)
    0x0800019c   0x0800019c   0x00000004   Code   RO         5903    .ARM.Collect$$$$00002712  mc_w.l(entry2.o)
    0x080001a0   0x080001a0   0x000000be   Code   RO         2520    .emb_text           port.o
    0x0800025e   0x0800025e   0x00000002   PAD
    0x08000260   0x08000260   0x00000024   Code   RO         5583    .text               startup_stm32f407xx.o
    0x08000284   0x08000284   0x00000062   Code   RO         5629    .text               mc_w.l(uldiv.o)
    0x080002e6   0x080002e6   0x00000024   Code   RO         5631    .text               mc_w.l(memcpya.o)
    0x0800030a   0x0800030a   0x00000024   Code   RO         5635    .text               mc_w.l(memseta.o)
    0x0800032e   0x0800032e   0x0000000e   Code   RO         5637    .text               mc_w.l(strlen.o)
    0x0800033c   0x0800033c   0x0000002c   Code   RO         5918    .text               mc_w.l(uidiv.o)
    0x08000368   0x08000368   0x0000001e   Code   RO         5920    .text               mc_w.l(llshl.o)
    0x08000386   0x08000386   0x00000020   Code   RO         5922    .text               mc_w.l(llushr.o)
    0x080003a6   0x080003a6   0x00000000   Code   RO         5924    .text               mc_w.l(iusefp.o)
    0x080003a6   0x080003a6   0x0000014e   Code   RO         5925    .text               mf_w.l(dadd.o)
    0x080004f4   0x080004f4   0x000000e4   Code   RO         5927    .text               mf_w.l(dmul.o)
    0x080005d8   0x080005d8   0x000000de   Code   RO         5929    .text               mf_w.l(ddiv.o)
    0x080006b6   0x080006b6   0x00000030   Code   RO         5931    .text               mf_w.l(dfixul.o)
    0x080006e6   0x080006e6   0x00000002   PAD
    0x080006e8   0x080006e8   0x00000030   Code   RO         5933    .text               mf_w.l(cdrcmple.o)
    0x08000718   0x08000718   0x00000024   Code   RO         5935    .text               mc_w.l(init.o)
    0x0800073c   0x0800073c   0x00000024   Code   RO         5937    .text               mc_w.l(llsshr.o)
    0x08000760   0x08000760   0x000000ba   Code   RO         5939    .text               mf_w.l(depilogue.o)
    0x0800081a   0x0800081a   0x00000002   PAD
    0x0800081c   0x0800081c   0x00000128   Code   RO         2603    i.ADC_Init          stm32f4xx_hal_adc.o
    0x08000944   0x08000944   0x00000004   Code   RO          761    i.AT24CXX_Init      24cxx.o
    0x08000948   0x08000948   0x00000022   Code   RO          762    i.AT24CXX_Read      24cxx.o
    0x0800096a   0x0800096a   0x00000042   Code   RO          764    i.AT24CXX_ReadOneByte  24cxx.o
    0x080009ac   0x080009ac   0x00000020   Code   RO          765    i.AT24CXX_Write     24cxx.o
    0x080009cc   0x080009cc   0x00000040   Code   RO          767    i.AT24CXX_WriteOneByte  24cxx.o
    0x08000a0c   0x08000a0c   0x00000074   Code   RO          892    i.BSP_W25Qx_Erase_Block  w25qxx.o
    0x08000a80   0x08000a80   0x00000058   Code   RO          894    i.BSP_W25Qx_GetStatus  w25qxx.o
    0x08000ad8   0x08000ad8   0x000000a8   Code   RO          895    i.BSP_W25Qx_Init    w25qxx.o
    0x08000b80   0x08000b80   0x0000006c   Code   RO          896    i.BSP_W25Qx_Read    w25qxx.o
    0x08000bec   0x08000bec   0x00000050   Code   RO          897    i.BSP_W25Qx_Read_ID  w25qxx.o
    0x08000c3c   0x08000c3c   0x000000cc   Code   RO          898    i.BSP_W25Qx_Write   w25qxx.o
    0x08000d08   0x08000d08   0x00000060   Code   RO          899    i.BSP_W25Qx_WriteEnable  w25qxx.o
    0x08000d68   0x08000d68   0x00000002   Code   RO          607    i.BusFault_Handler  stm32f4xx_it.o
    0x08000d6a   0x08000d6a   0x00000002   Code   RO          608    i.DebugMon_Handler  stm32f4xx_it.o
    0x08000d6c   0x08000d6c   0x00000006   Code   RO          609    i.EXTI4_IRQHandler  stm32f4xx_it.o
    0x08000d72   0x08000d72   0x00000004   Code   RO          245    i.Error_Handler     main.o
    0x08000d76   0x08000d76   0x00000002   PAD
    0x08000d78   0x08000d78   0x000001bc   Code   RO         2773    i.HAL_ADCEx_InjectedConfigChannel  stm32f4xx_hal_adc_ex.o
    0x08000f34   0x08000f34   0x0000014c   Code   RO         2605    i.HAL_ADC_ConfigChannel  stm32f4xx_hal_adc.o
    0x08001080   0x08001080   0x00000054   Code   RO         2614    i.HAL_ADC_Init      stm32f4xx_hal_adc.o
    0x080010d4   0x080010d4   0x00000060   Code   RO          399    i.HAL_ADC_MspInit   adc.o
    0x08001134   0x08001134   0x00000024   Code   RO         3338    i.HAL_DMA_Abort_IT  stm32f4xx_hal_dma.o
    0x08001158   0x08001158   0x00000002   Code   RO         3228    i.HAL_GPIO_EXTI_Callback  stm32f4xx_hal_gpio.o
    0x0800115a   0x0800115a   0x00000002   PAD
    0x0800115c   0x0800115c   0x00000018   Code   RO         3229    i.HAL_GPIO_EXTI_IRQHandler  stm32f4xx_hal_gpio.o
    0x08001174   0x08001174   0x000001b8   Code   RO         3230    i.HAL_GPIO_Init     stm32f4xx_hal_gpio.o
    0x0800132c   0x0800132c   0x0000000a   Code   RO         3232    i.HAL_GPIO_ReadPin  stm32f4xx_hal_gpio.o
    0x08001336   0x08001336   0x0000000a   Code   RO         3234    i.HAL_GPIO_WritePin  stm32f4xx_hal_gpio.o
    0x08001340   0x08001340   0x0000000c   Code   RO         3762    i.HAL_GetTick       stm32f4xx_hal.o
    0x0800134c   0x0800134c   0x00000010   Code   RO         3768    i.HAL_IncTick       stm32f4xx_hal.o
    0x0800135c   0x0800135c   0x00000034   Code   RO         3769    i.HAL_Init          stm32f4xx_hal.o
    0x08001390   0x08001390   0x00000040   Code   RO         3770    i.HAL_InitTick      stm32f4xx_hal.o
    0x080013d0   0x080013d0   0x00000038   Code   RO          700    i.HAL_MspInit       stm32f4xx_hal_msp.o
    0x08001408   0x08001408   0x0000001a   Code   RO         3619    i.HAL_NVIC_EnableIRQ  stm32f4xx_hal_cortex.o
    0x08001422   0x08001422   0x00000002   PAD
    0x08001424   0x08001424   0x00000040   Code   RO         3625    i.HAL_NVIC_SetPriority  stm32f4xx_hal_cortex.o
    0x08001464   0x08001464   0x00000024   Code   RO         3626    i.HAL_NVIC_SetPriorityGrouping  stm32f4xx_hal_cortex.o
    0x08001488   0x08001488   0x00000134   Code   RO         2876    i.HAL_RCC_ClockConfig  stm32f4xx_hal_rcc.o
    0x080015bc   0x080015bc   0x00000020   Code   RO         2883    i.HAL_RCC_GetPCLK1Freq  stm32f4xx_hal_rcc.o
    0x080015dc   0x080015dc   0x00000020   Code   RO         2884    i.HAL_RCC_GetPCLK2Freq  stm32f4xx_hal_rcc.o
    0x080015fc   0x080015fc   0x00000060   Code   RO         2885    i.HAL_RCC_GetSysClockFreq  stm32f4xx_hal_rcc.o
    0x0800165c   0x0800165c   0x0000035c   Code   RO         2888    i.HAL_RCC_OscConfig  stm32f4xx_hal_rcc.o
    0x080019b8   0x080019b8   0x00000080   Code   RO         4018    i.HAL_SPI_Init      stm32f4xx_hal_spi.o
    0x08001a38   0x08001a38   0x00000068   Code   RO          441    i.HAL_SPI_MspInit   spi.o
    0x08001aa0   0x08001aa0   0x00000150   Code   RO         4021    i.HAL_SPI_Receive   stm32f4xx_hal_spi.o
    0x08001bf0   0x08001bf0   0x0000015c   Code   RO         4026    i.HAL_SPI_Transmit  stm32f4xx_hal_spi.o
    0x08001d4c   0x08001d4c   0x000001e2   Code   RO         4027    i.HAL_SPI_TransmitReceive  stm32f4xx_hal_spi.o
    0x08001f2e   0x08001f2e   0x00000028   Code   RO         3630    i.HAL_SYSTICK_Config  stm32f4xx_hal_cortex.o
    0x08001f56   0x08001f56   0x00000002   Code   RO         5006    i.HAL_TIMEx_BreakCallback  stm32f4xx_hal_tim_ex.o
    0x08001f58   0x08001f58   0x00000002   Code   RO         5007    i.HAL_TIMEx_CommutCallback  stm32f4xx_hal_tim_ex.o
    0x08001f5a   0x08001f5a   0x00000002   PAD
    0x08001f5c   0x08001f5c   0x00000090   Code   RO         5024    i.HAL_TIMEx_MasterConfigSynchronization  stm32f4xx_hal_tim_ex.o
    0x08001fec   0x08001fec   0x00000036   Code   RO         4331    i.HAL_TIM_Base_Init  stm32f4xx_hal_tim.o
    0x08002022   0x08002022   0x00000002   PAD
    0x08002024   0x08002024   0x00000064   Code   RO          483    i.HAL_TIM_Base_MspInit  tim.o
    0x08002088   0x08002088   0x000000d6   Code   RO         4340    i.HAL_TIM_ConfigClockSource  stm32f4xx_hal_tim.o
    0x0800215e   0x0800215e   0x00000002   Code   RO         4360    i.HAL_TIM_IC_CaptureCallback  stm32f4xx_hal_tim.o
    0x08002160   0x08002160   0x00000166   Code   RO         4374    i.HAL_TIM_IRQHandler  stm32f4xx_hal_tim.o
    0x080022c6   0x080022c6   0x00000002   PAD
    0x080022c8   0x080022c8   0x00000054   Code   RO          484    i.HAL_TIM_MspPostInit  tim.o
    0x0800231c   0x0800231c   0x00000002   Code   RO         4377    i.HAL_TIM_OC_DelayElapsedCallback  stm32f4xx_hal_tim.o
    0x0800231e   0x0800231e   0x000000d0   Code   RO         4398    i.HAL_TIM_PWM_ConfigChannel  stm32f4xx_hal_tim.o
    0x080023ee   0x080023ee   0x00000036   Code   RO         4401    i.HAL_TIM_PWM_Init  stm32f4xx_hal_tim.o
    0x08002424   0x08002424   0x00000002   Code   RO         4403    i.HAL_TIM_PWM_MspInit  stm32f4xx_hal_tim.o
    0x08002426   0x08002426   0x00000002   Code   RO         4404    i.HAL_TIM_PWM_PulseFinishedCallback  stm32f4xx_hal_tim.o
    0x08002428   0x08002428   0x00000002   Code   RO         4412    i.HAL_TIM_PeriodElapsedCallback  stm32f4xx_hal_tim.o
    0x0800242a   0x0800242a   0x00000002   Code   RO         4417    i.HAL_TIM_TriggerCallback  stm32f4xx_hal_tim.o
    0x0800242c   0x0800242c   0x00000002   Code   RO         5278    i.HAL_UART_ErrorCallback  stm32f4xx_hal_uart.o
    0x0800242e   0x0800242e   0x00000002   PAD
    0x08002430   0x08002430   0x00000114   Code   RO         5281    i.HAL_UART_IRQHandler  stm32f4xx_hal_uart.o
    0x08002544   0x08002544   0x00000062   Code   RO         5282    i.HAL_UART_Init     stm32f4xx_hal_uart.o
    0x080025a6   0x080025a6   0x00000002   PAD
    0x080025a8   0x080025a8   0x000000c8   Code   RO          537    i.HAL_UART_MspInit  usart.o
    0x08002670   0x08002670   0x00000052   Code   RO         5287    i.HAL_UART_Receive_IT  stm32f4xx_hal_uart.o
    0x080026c2   0x080026c2   0x00000002   PAD
    0x080026c4   0x080026c4   0x000000f0   Code   RO          538    i.HAL_UART_RxCpltCallback  usart.o
    0x080027b4   0x080027b4   0x000000ba   Code   RO         5290    i.HAL_UART_Transmit  stm32f4xx_hal_uart.o
    0x0800286e   0x0800286e   0x00000002   Code   RO         5293    i.HAL_UART_TxCpltCallback  stm32f4xx_hal_uart.o
    0x08002870   0x08002870   0x00000002   Code   RO          610    i.HardFault_Handler  stm32f4xx_it.o
    0x08002872   0x08002872   0x00000002   PAD
    0x08002874   0x08002874   0x00000044   Code   RO          826    i.IIC_Ack           myiic.o
    0x080028b8   0x080028b8   0x0000006c   Code   RO          827    i.IIC_Init          myiic.o
    0x08002924   0x08002924   0x00000044   Code   RO          828    i.IIC_NAck          myiic.o
    0x08002968   0x08002968   0x00000068   Code   RO          829    i.IIC_Read_Byte     myiic.o
    0x080029d0   0x080029d0   0x00000068   Code   RO          830    i.IIC_Send_Byte     myiic.o
    0x08002a38   0x08002a38   0x00000044   Code   RO          831    i.IIC_Start         myiic.o
    0x08002a7c   0x08002a7c   0x00000048   Code   RO          832    i.IIC_Stop          myiic.o
    0x08002ac4   0x08002ac4   0x00000060   Code   RO          833    i.IIC_Wait_Ack      myiic.o
    0x08002b24   0x08002b24   0x0000009c   Code   RO          400    i.MX_ADC1_Init      adc.o
    0x08002bc0   0x08002bc0   0x0000007c   Code   RO          330    i.MX_FREERTOS_Init  freertos.o
    0x08002c3c   0x08002c3c   0x000000f4   Code   RO          301    i.MX_GPIO_Init      gpio.o
    0x08002d30   0x08002d30   0x00000048   Code   RO          442    i.MX_SPI1_Init      spi.o
    0x08002d78   0x08002d78   0x00000068   Code   RO          485    i.MX_TIM14_Init     tim.o
    0x08002de0   0x08002de0   0x0000006c   Code   RO          486    i.MX_TIM3_Init      tim.o
    0x08002e4c   0x08002e4c   0x00000044   Code   RO          539    i.MX_USART1_UART_Init  usart.o
    0x08002e90   0x08002e90   0x00000044   Code   RO          540    i.MX_USART2_UART_Init  usart.o
    0x08002ed4   0x08002ed4   0x00000002   Code   RO          611    i.MemManage_Handler  stm32f4xx_it.o
    0x08002ed6   0x08002ed6   0x00000002   Code   RO          612    i.NMI_Handler       stm32f4xx_it.o
    0x08002ed8   0x08002ed8   0x0000005c   Code   RO         4055    i.SPI_EndRxTransaction  stm32f4xx_hal_spi.o
    0x08002f34   0x08002f34   0x00000058   Code   RO         4056    i.SPI_EndRxTxTransaction  stm32f4xx_hal_spi.o
    0x08002f8c   0x08002f8c   0x00000094   Code   RO         4061    i.SPI_WaitFlagStateUntilTimeout  stm32f4xx_hal_spi.o
    0x08003020   0x08003020   0x00000008   Code   RO          331    i.StartDefaultTask  freertos.o
    0x08003028   0x08003028   0x000000b0   Code   RO          332    i.StartTask02       freertos.o
    0x080030d8   0x080030d8   0x00000060   Code   RO          333    i.StartTask04       freertos.o
    0x08003138   0x08003138   0x00000018   Code   RO          613    i.SysTick_Handler   stm32f4xx_it.o
    0x08003150   0x08003150   0x00000098   Code   RO          246    i.SystemClock_Config  main.o
    0x080031e8   0x080031e8   0x0000001c   Code   RO         5591    i.SystemInit        system_stm32f4xx.o
    0x08003204   0x08003204   0x0000000c   Code   RO          614    i.TIM3_IRQHandler   stm32f4xx_it.o
    0x08003210   0x08003210   0x0000000c   Code   RO          615    i.TIM8_TRG_COM_TIM14_IRQHandler  stm32f4xx_it.o
    0x0800321c   0x0800321c   0x000000c8   Code   RO         4419    i.TIM_Base_SetConfig  stm32f4xx_hal_tim.o
    0x080032e4   0x080032e4   0x00000014   Code   RO         4430    i.TIM_ETR_SetConfig  stm32f4xx_hal_tim.o
    0x080032f8   0x080032f8   0x00000010   Code   RO         4431    i.TIM_ITRx_SetConfig  stm32f4xx_hal_tim.o
    0x08003308   0x08003308   0x00000060   Code   RO         4432    i.TIM_OC1_SetConfig  stm32f4xx_hal_tim.o
    0x08003368   0x08003368   0x0000006c   Code   RO         4433    i.TIM_OC2_SetConfig  stm32f4xx_hal_tim.o
    0x080033d4   0x080033d4   0x00000068   Code   RO         4434    i.TIM_OC3_SetConfig  stm32f4xx_hal_tim.o
    0x0800343c   0x0800343c   0x00000050   Code   RO         4435    i.TIM_OC4_SetConfig  stm32f4xx_hal_tim.o
    0x0800348c   0x0800348c   0x00000022   Code   RO         4437    i.TIM_TI1_ConfigInputStage  stm32f4xx_hal_tim.o
    0x080034ae   0x080034ae   0x00000024   Code   RO         4439    i.TIM_TI2_ConfigInputStage  stm32f4xx_hal_tim.o
    0x080034d2   0x080034d2   0x00000002   PAD
    0x080034d4   0x080034d4   0x00000068   Code   RO          334    i.Task3             freertos.o
    0x0800353c   0x0800353c   0x00000010   Code   RO         5295    i.UART_DMAAbortOnError  stm32f4xx_hal_uart.o
    0x0800354c   0x0800354c   0x0000001c   Code   RO         5305    i.UART_EndRxTransfer  stm32f4xx_hal_uart.o
    0x08003568   0x08003568   0x00000096   Code   RO         5307    i.UART_Receive_IT   stm32f4xx_hal_uart.o
    0x080035fe   0x080035fe   0x00000002   PAD
    0x08003600   0x08003600   0x00000128   Code   RO         5308    i.UART_SetConfig    stm32f4xx_hal_uart.o
    0x08003728   0x08003728   0x00000062   Code   RO         5309    i.UART_Transmit_IT  stm32f4xx_hal_uart.o
    0x0800378a   0x0800378a   0x00000064   Code   RO         5310    i.UART_WaitOnFlagUntilTimeout  stm32f4xx_hal_uart.o
    0x080037ee   0x080037ee   0x00000002   PAD
    0x080037f0   0x080037f0   0x0000000c   Code   RO          616    i.USART1_IRQHandler  stm32f4xx_it.o
    0x080037fc   0x080037fc   0x0000000c   Code   RO          617    i.USART2_IRQHandler  stm32f4xx_it.o
    0x08003808   0x08003808   0x00000002   Code   RO          618    i.UsageFault_Handler  stm32f4xx_it.o
    0x0800380a   0x0800380a   0x00000002   PAD
    0x0800380c   0x0800380c   0x00000020   Code   RO         5874    i.__0printf         mc_w.l(printfa.o)
    0x0800382c   0x0800382c   0x00000020   Code   RO         3632    i.__NVIC_SetPriority  stm32f4xx_hal_cortex.o
    0x0800384c   0x0800384c   0x0000000e   Code   RO         5943    i.__scatterload_copy  mc_w.l(handlers.o)
    0x0800385a   0x0800385a   0x00000002   Code   RO         5944    i.__scatterload_null  mc_w.l(handlers.o)
    0x0800385c   0x0800385c   0x0000000e   Code   RO         5945    i.__scatterload_zeroinit  mc_w.l(handlers.o)
    0x0800386a   0x0800386a   0x00000002   PAD
    0x0800386c   0x0800386c   0x00000184   Code   RO         5881    i._fp_digits        mc_w.l(printfa.o)
    0x080039f0   0x080039f0   0x000006b4   Code   RO         5882    i._printf_core      mc_w.l(printfa.o)
    0x080040a4   0x080040a4   0x00000024   Code   RO         5883    i._printf_post_padding  mc_w.l(printfa.o)
    0x080040c8   0x080040c8   0x0000002e   Code   RO         5884    i._printf_pre_padding  mc_w.l(printfa.o)
    0x080040f6   0x080040f6   0x00000002   PAD
    0x080040f8   0x080040f8   0x0000004c   Code   RO          247    i.bsp_delay_us      main.o
    0x08004144   0x08004144   0x00000018   Code   RO          542    i.fputc             usart.o
    0x0800415c   0x0800415c   0x0000003a   Code   RO          248    i.main              main.o
    0x08004196   0x08004196   0x00000002   PAD
    0x08004198   0x08004198   0x00000034   Code   RO         2044    i.osDelay           cmsis_os2.o
    0x080041cc   0x080041cc   0x00000034   Code   RO         2058    i.osKernelInitialize  cmsis_os2.o
    0x08004200   0x08004200   0x0000003c   Code   RO         2061    i.osKernelStart     cmsis_os2.o
    0x0800423c   0x0800423c   0x00000074   Code   RO         2069    i.osMessageQueueNew  cmsis_os2.o
    0x080042b0   0x080042b0   0x00000080   Code   RO         2075    i.osMutexNew        cmsis_os2.o
    0x08004330   0x08004330   0x000000a4   Code   RO         2094    i.osThreadNew       cmsis_os2.o
    0x080043d4   0x080043d4   0x0000005c   Code   RO         1528    i.prvAddCurrentTaskToDelayedList  tasks.o
    0x08004430   0x08004430   0x000000d0   Code   RO         1529    i.prvAddNewTaskToReadyList  tasks.o
    0x08004500   0x08004500   0x00000058   Code   RO         1881    i.prvCheckForValidListAndQueue  timers.o
    0x08004558   0x08004558   0x00000026   Code   RO         1125    i.prvCopyDataFromQueue  queue.o
    0x0800457e   0x0800457e   0x0000006c   Code   RO         1126    i.prvCopyDataToQueue  queue.o
    0x080045ea   0x080045ea   0x00000034   Code   RO         1530    i.prvDeleteTCB      tasks.o
    0x0800461e   0x0800461e   0x00000002   PAD
    0x08004620   0x08004620   0x0000004c   Code   RO         2471    i.prvHeapInit       heap_4.o
    0x0800466c   0x0800466c   0x00000060   Code   RO         1531    i.prvIdleTask       tasks.o
    0x080046cc   0x080046cc   0x00000016   Code   RO         1127    i.prvInitialiseMutex  queue.o
    0x080046e2   0x080046e2   0x00000002   PAD
    0x080046e4   0x080046e4   0x00000022   Code   RO         1128    i.prvInitialiseNewQueue  queue.o
    0x08004706   0x08004706   0x00000002   PAD
    0x08004708   0x08004708   0x000000b0   Code   RO         1532    i.prvInitialiseNewTask  tasks.o
    0x080047b8   0x080047b8   0x0000004c   Code   RO         2472    i.prvInsertBlockIntoFreeList  heap_4.o
    0x08004804   0x08004804   0x00000038   Code   RO         1883    i.prvInsertTimerInActiveList  timers.o
    0x0800483c   0x0800483c   0x0000001c   Code   RO         1129    i.prvIsQueueEmpty   queue.o
    0x08004858   0x08004858   0x000000fc   Code   RO         1884    i.prvProcessReceivedCommands  timers.o
    0x08004954   0x08004954   0x000000c0   Code   RO         1885    i.prvProcessTimerOrBlockTask  timers.o
    0x08004a14   0x08004a14   0x00000020   Code   RO         1534    i.prvResetNextTaskUnblockTime  tasks.o
    0x08004a34   0x08004a34   0x00000028   Code   RO         1886    i.prvSampleTimeNow  timers.o
    0x08004a5c   0x08004a5c   0x0000006c   Code   RO         1887    i.prvSwitchTimerLists  timers.o
    0x08004ac8   0x08004ac8   0x00000028   Code   RO         2521    i.prvTaskExitError  port.o
    0x08004af0   0x08004af0   0x00000024   Code   RO         1888    i.prvTimerTask      timers.o
    0x08004b14   0x08004b14   0x0000006a   Code   RO         1130    i.prvUnlockQueue    queue.o
    0x08004b7e   0x08004b7e   0x00000002   PAD
    0x08004b80   0x08004b80   0x000000d8   Code   RO         2473    i.pvPortMalloc      heap_4.o
    0x08004c58   0x08004c58   0x0000002c   Code   RO         2522    i.pxPortInitialiseStack  port.o
    0x08004c84   0x08004c84   0x00000026   Code   RO         1085    i.uxListRemove      list.o
    0x08004caa   0x08004caa   0x00000002   PAD
    0x08004cac   0x08004cac   0x00000014   Code   RO         2106    i.vApplicationGetIdleTaskMemory  cmsis_os2.o
    0x08004cc0   0x08004cc0   0x00000018   Code   RO         2107    i.vApplicationGetTimerTaskMemory  cmsis_os2.o
    0x08004cd8   0x08004cd8   0x00000016   Code   RO         1086    i.vListInitialise   list.o
    0x08004cee   0x08004cee   0x00000006   Code   RO         1087    i.vListInitialiseItem  list.o
    0x08004cf4   0x08004cf4   0x00000030   Code   RO         1088    i.vListInsert       list.o
    0x08004d24   0x08004d24   0x00000018   Code   RO         1089    i.vListInsertEnd    list.o
    0x08004d3c   0x08004d3c   0x00000040   Code   RO         2524    i.vPortEnterCritical  port.o
    0x08004d7c   0x08004d7c   0x00000028   Code   RO         2525    i.vPortExitCritical  port.o
    0x08004da4   0x08004da4   0x0000005c   Code   RO         2474    i.vPortFree         heap_4.o
    0x08004e00   0x08004e00   0x00000024   Code   RO         2526    i.vPortSetupTimerInterrupt  port.o
    0x08004e24   0x08004e24   0x00000054   Code   RO         2527    i.vPortValidateInterruptPriority  port.o
    0x08004e78   0x08004e78   0x00000028   Code   RO         1136    i.vQueueAddToRegistry  queue.o
    0x08004ea0   0x08004ea0   0x00000044   Code   RO         1140    i.vQueueWaitForMessageRestricted  queue.o
    0x08004ee4   0x08004ee4   0x0000004c   Code   RO         1546    i.vTaskDelay        tasks.o
    0x08004f30   0x08004f30   0x00000010   Code   RO         1551    i.vTaskInternalSetTimeOutState  tasks.o
    0x08004f40   0x08004f40   0x0000000c   Code   RO         1552    i.vTaskMissedYield  tasks.o
    0x08004f4c   0x08004f4c   0x00000030   Code   RO         1554    i.vTaskPlaceOnEventList  tasks.o
    0x08004f7c   0x08004f7c   0x00000038   Code   RO         1555    i.vTaskPlaceOnEventListRestricted  tasks.o
    0x08004fb4   0x08004fb4   0x00000088   Code   RO         1563    i.vTaskStartScheduler  tasks.o
    0x0800503c   0x0800503c   0x00000010   Code   RO         1565    i.vTaskSuspendAll   tasks.o
    0x0800504c   0x0800504c   0x00000064   Code   RO         1566    i.vTaskSwitchContext  tasks.o
    0x080050b0   0x080050b0   0x000000f4   Code   RO         2528    i.xPortStartScheduler  port.o
    0x080051a4   0x080051a4   0x0000002c   Code   RO         2529    i.xPortSysTickHandler  port.o
    0x080051d0   0x080051d0   0x00000016   Code   RO         1143    i.xQueueCreateMutex  queue.o
    0x080051e6   0x080051e6   0x0000001a   Code   RO         1144    i.xQueueCreateMutexStatic  queue.o
    0x08005200   0x08005200   0x00000048   Code   RO         1145    i.xQueueGenericCreate  queue.o
    0x08005248   0x08005248   0x00000066   Code   RO         1146    i.xQueueGenericCreateStatic  queue.o
    0x080052ae   0x080052ae   0x00000002   PAD
    0x080052b0   0x080052b0   0x00000088   Code   RO         1147    i.xQueueGenericReset  queue.o
    0x08005338   0x08005338   0x00000160   Code   RO         1148    i.xQueueGenericSend  queue.o
    0x08005498   0x08005498   0x000000bc   Code   RO         1149    i.xQueueGenericSendFromISR  queue.o
    0x08005554   0x08005554   0x00000138   Code   RO         1158    i.xQueueReceive     queue.o
    0x0800568c   0x0800568c   0x0000009a   Code   RO         1159    i.xQueueReceiveFromISR  queue.o
    0x08005726   0x08005726   0x00000002   PAD
    0x08005728   0x08005728   0x00000074   Code   RO         1567    i.xTaskCheckForTimeOut  tasks.o
    0x0800579c   0x0800579c   0x0000005a   Code   RO         1568    i.xTaskCreate       tasks.o
    0x080057f6   0x080057f6   0x00000056   Code   RO         1569    i.xTaskCreateStatic  tasks.o
    0x0800584c   0x0800584c   0x0000001c   Code   RO         1573    i.xTaskGetSchedulerState  tasks.o
    0x08005868   0x08005868   0x0000000c   Code   RO         1574    i.xTaskGetTickCount  tasks.o
    0x08005874   0x08005874   0x000000c8   Code   RO         1576    i.xTaskIncrementTick  tasks.o
    0x0800593c   0x0800593c   0x00000080   Code   RO         1579    i.xTaskPriorityDisinherit  tasks.o
    0x080059bc   0x080059bc   0x00000070   Code   RO         1581    i.xTaskRemoveFromEventList  tasks.o
    0x08005a2c   0x08005a2c   0x000000c4   Code   RO         1582    i.xTaskResumeAll    tasks.o
    0x08005af0   0x08005af0   0x00000060   Code   RO         1896    i.xTimerCreateTimerTask  timers.o
    0x08005b50   0x08005b50   0x00000068   Code   RO         1897    i.xTimerGenericCommand  timers.o
    0x08005bb8   0x08005bb8   0x000000d0   Data   RO          335    .constdata          freertos.o
    0x08005c88   0x08005c88   0x00000010   Data   RO         5592    .constdata          system_stm32f4xx.o
    0x08005c98   0x08005c98   0x00000008   Data   RO         5593    .constdata          system_stm32f4xx.o
    0x08005ca0   0x08005ca0   0x00000058   Data   RO          336    .conststring        freertos.o
    0x08005cf8   0x08005cf8   0x00000020   Data   RO         5941    Region$$Table       anon$$obj.o


    Execution Region RW_IRAM2 (Exec base: 0x10000000, Load base: 0x08005dcc, Size: 0x00000000, Max: 0x00010000, ABSOLUTE)

    **** No section assigned to this execution region ****


    Execution Region RW_IRAM1 (Exec base: 0x20000000, Load base: 0x08005d18, Size: 0x00005328, Max: 0x00020000, ABSOLUTE)

    Exec Addr    Load Addr    Size         Type   Attr      Idx    E Section Name        Object

    0x20000000   0x08005d18   0x00000008   Data   RW          249    .data               main.o
    0x20000008   0x08005d20   0x0000001c   Data   RW          337    .data               freertos.o
    0x20000024   0x08005d3c   0x00000002   Data   RW          544    .data               usart.o
    0x20000026   0x08005d3e   0x00000002   PAD
    0x20000028   0x08005d40   0x0000003c   Data   RW         1585    .data               tasks.o
    0x20000064   0x08005d7c   0x00000014   Data   RW         1905    .data               timers.o
    0x20000078   0x08005d90   0x00000004   Data   RW         2109    .data               cmsis_os2.o
    0x2000007c   0x08005d94   0x00000018   Data   RW         2479    .data               heap_4.o
    0x20000094   0x08005dac   0x0000000c   Data   RW         2530    .data               port.o
    0x200000a0   0x08005db8   0x0000000c   Data   RW         3776    .data               stm32f4xx_hal.o
    0x200000ac   0x08005dc4   0x00000004   Data   RW         5594    .data               system_stm32f4xx.o
    0x200000b0   0x08005dc8   0x00000004   Data   RW         5628    .data               mc_w.l(stdout.o)
    0x200000b4        -       0x00000048   Zero   RW          401    .bss                adc.o
    0x200000fc        -       0x00000058   Zero   RW          443    .bss                spi.o
    0x20000154        -       0x00000080   Zero   RW          487    .bss                tim.o
    0x200001d4        -       0x00000480   Zero   RW          543    .bss                usart.o
    0x20000654        -       0x00000040   Zero   RW         1162    .bss                queue.o
    0x20000694        -       0x000004c4   Zero   RW         1584    .bss                tasks.o
    0x20000b58        -       0x00000118   Zero   RW         1904    .bss                timers.o
    0x20000c70        -       0x000006b8   Zero   RW         2108    .bss                cmsis_os2.o
    0x20001328        -       0x00003c00   Zero   RW         2478    .bss                heap_4.o
    0x20004f28        -       0x00000400   Zero   RW         5580    STACK               startup_stm32f407xx.o


==============================================================================

Image component sizes


      Code (inc. data)   RO Data    RW Data    ZI Data      Debug   Object Name

       200          0          0          0          0       3199   24cxx.o
       252         30          0          0         72       1745   adc.o
       616         40          0          4       1720      32479   cmsis_os2.o
         0          0          0          0          0      18348   event_groups.o
       508        126        296         28          0       4291   freertos.o
       244         22          0          0          0       1007   gpio.o
       460         24          0         24      15360       4763   heap_4.o
       138          0          0          0          0       3534   list.o
         0          0          0          0          0     727768   log.o
       290         24          0          8          0       4679   main.o
       688         42          0          0          0       4818   myiic.o
       786         82          0         12          0      11577   port.o
      1808         20          0          0         64      21815   queue.o
       176         22          0          0         88       1645   spi.o
        36          8        392          0       1024        804   startup_stm32f407xx.o
       144         24          0         12          0       8757   stm32f4xx_hal.o
       712         28          0          0          0       2879   stm32f4xx_hal_adc.o
       444         16          0          0          0       1514   stm32f4xx_hal_adc_ex.o
       198         14          0          0          0      33935   stm32f4xx_hal_cortex.o
        36          0          0          0          0       1211   stm32f4xx_hal_dma.o
       486         52          0          0          0       4231   stm32f4xx_hal_gpio.o
        56          4          0          0          0        834   stm32f4xx_hal_msp.o
      1328         72          0          0          0       5220   stm32f4xx_hal_rcc.o
      1622          8          0          0          0       8282   stm32f4xx_hal_spi.o
      1594         80          0          0          0      15086   stm32f4xx_hal_tim.o
       148         28          0          0          0       2449   stm32f4xx_hal_tim_ex.o
      1334         16          0          0          0       9759   stm32f4xx_hal_uart.o
        90         24          0          0          0       5552   stm32f4xx_it.o
         0          0          0          0          0        392   stream_buffer.o
        28          6         24          4          0       1127   system_stm32f4xx.o
      2084        170          0         60       1220      26880   tasks.o
       396         46          0          0        128       2971   tim.o
       972         80          0         20        280      29499   timers.o
       600         72          0          2       1152       3738   usart.o
       860        146          0          0          0       5240   w25qxx.o

    ----------------------------------------------------------------------
     19380       1326        744        176      21108    1012028   Object Totals
         0          0         32          0          0          0   (incl. Generated)
        46          0          0          2          0          0   (incl. Padding)

    ----------------------------------------------------------------------

      Code (inc. data)   RO Data    RW Data    ZI Data      Debug   Library Member Name

         0          0          0          0          0          0   entry.o
         0          0          0          0          0          0   entry10a.o
         0          0          0          0          0          0   entry11a.o
         4          0          0          0          0          0   entry12b.o
         8          4          0          0          0          0   entry2.o
         4          0          0          0          0          0   entry5.o
         0          0          0          0          0          0   entry7b.o
         0          0          0          0          0          0   entry8b.o
         8          4          0          0          0          0   entry9a.o
        30          0          0          0          0          0   handlers.o
        36          8          0          0          0         68   init.o
         0          0          0          0          0          0   iusefp.o
        30          0          0          0          0         68   llshl.o
        36          0          0          0          0         68   llsshr.o
        32          0          0          0          0         68   llushr.o
        36          0          0          0          0         68   memcpya.o
        36          0          0          0          0        108   memseta.o
      2218         90          0          0          0        464   printfa.o
         0          0          0          4          0          0   stdout.o
        14          0          0          0          0         68   strlen.o
        44          0          0          0          0         80   uidiv.o
        98          0          0          0          0         92   uldiv.o
        48          0          0          0          0         68   cdrcmple.o
       334          0          0          0          0        148   dadd.o
       222          0          0          0          0        100   ddiv.o
       186          0          0          0          0        176   depilogue.o
        48          0          0          0          0         68   dfixul.o
       228          0          0          0          0         96   dmul.o

    ----------------------------------------------------------------------
      3708        106          0          4          0       1808   Library Totals
         8          0          0          0          0          0   (incl. Padding)

    ----------------------------------------------------------------------

      Code (inc. data)   RO Data    RW Data    ZI Data      Debug   Library Name

      2634        106          0          4          0       1152   mc_w.l
      1066          0          0          0          0        656   mf_w.l

    ----------------------------------------------------------------------
      3708        106          0          4          0       1808   Library Totals

    ----------------------------------------------------------------------

==============================================================================


      Code (inc. data)   RO Data    RW Data    ZI Data      Debug   

     23088       1432        744        180      21108     994056   Grand Totals
     23088       1432        744        180      21108     994056   ELF Image Totals
     23088       1432        744        180          0          0   ROM Totals

==============================================================================

    Total RO  Size (Code + RO Data)                23832 (  23.27kB)
    Total RW  Size (RW Data + ZI Data)             21288 (  20.79kB)
    Total ROM Size (Code + RO Data + RW Data)      24012 (  23.45kB)

==============================================================================

